S0110000757064695F746573742E7372656342
S113000038440020712900006D2900006D2900008A
S113001000000000000000000000000000000000DC
S11300200000000000000000000000006D29000036
S113003000000000000000006D2900006D29000090
S11300406D2900006D2900006D2900006D29000054
S11300506D2900006D2900006D2900006D29000044
S11300606D2900006D2900006D2900006D29000034
S11300702D3500006D2900006D2900006D29000058
S11300806D2900006D2900006D2900006D29000014
S11300906D2900006D2900006D2900006D29000004
S11300A06D2900006D2900006D2900006D290000F4
S11300B00000000010B5064C2378002B07D1054B37
S11300C0002B02D0044800E000BF0123237010BDC0
S11300D05023002000000000F05C0000084B10B525
S11300E0002B03D00749084800E000BF0748036815
S11300F0002B00D110BD064B002BFBD09847F9E72D
S11301000000000054230020F05C0000F05C0000BC
S11301100000000010B5014B984710BD752A00007F
S1130120A022D20003008218002010B51C88002CE5
S113013007D19C68002C04D0DC68002C01D0198005
S1130140013014339342F1D110BD0000F0B585B0F5
S113015002AA00211F4B01909847021E08D01E4995
S113016001201E4B984702256D42280005B0F0BDC2
S113017002AB19881A4C09091A4B200098470198B8
S1130180194B98470500071E06D0020017490120A5
S1130190124B98470425E7E7E268002A11D021882A
S11301A063680901591889B223690198104EB04750
S11301B0031E06D03A000F490120084CA04705252C
S11301C0D2E701371434402FE6D10B490120034B09
S11301D09847CAE701210000474400005703000084
S11301E00000002021010000811E00006444000082
S11301F0612300007D4400009944000070B5264C42
S1130200264B20009847021E08D1220024490120D1
S1130210244B022498476442200070BDE121002051
S11302204902214B9847051E0CD1204901201D4B42
S113023098470324644228001D4B984728001D4B0F
S11302409847E9E71C4B9847002805D01B49012033
S1130250144B98470424EDE72800194B9847021ED5
S11302600DD0184901200F4CA0472800164B984781
S1130270021E04D015490120A0470524DAE728000E
S1130280134B9847041ED6D0020012490120054B97
S113029098470924CEE7C046AA440000D9020000CA
S11302A0B344000057030000DD1C0000C9440000F3
S11302B0D11D0000211D0000511D0000DF4400007D
S11302C0851D0000FA440000251E0000334500008F
S11302D04D0100004F450000F7B50025084C094FBB
S11302E00190082D01D1002006E0EE00315901985B
S11302F0B847002801D1A019FEBD0135F1E7C04679
S1130300684500001B44000010B5130004000329D5
S113031012D80800616803F049F902090B0D043191
S113032018000622064B9847002010BD1C31F7E741
S11303301631F5E71031F3E702204042F5E7C046F5
S1130340F943000010B580B2014B984710BDC04678
S1130350A52A000070470EB403B070477047704779
S11303607047000070B50868234B0D00984793212F
S1130370224BC9059847224B22499847011C8F20DC
S1130380214BC0059847214B9847214C0100214B34
S11303902000984728790538032825D803F006F962
S11303A020021C1E062120001B4B98476979002956
S11303B002D002291BD101392000184B9847A97992
S11303C0012904D000290DD0022912D100212000D6
S11303D0134B9847002070BD0721E4E70021E2E7B2
S11303E00521E0E70221F2E706204042F3E7072077
S11303F0FBE70820F9E7C046254100006D3B0000FB
S1130400DD3800000024744BAD3D0000AD38000021
S1130410E8230020ED2D00007D2E00004D2E00006D
S11304201D2E0000F8B50E00124C134D134A012185
S11304302000A847124A00212000A847114A02219F
S11304402000A847104F114B390020009847104B4B
S1130450200098470F4D104B31002B603B6828005B
S11304606B600E4B9847002802D020000C4B984735
S11304702800F8BDE8230020812D0000610300005E
S11304805F0300005D03000094230020592D000049
S1130490012D000098230020A5A50000650300009D
S11304A02D2D000010B5002808D0064B02689A4292
S11304B004D10548054B9847002010BD0120404257
S11304C0FBE7C046A5A50000E8230020AD2E0000F0
S11304D010B5002809D0064B04689C4205D192B29D
S11304E04068044B9847002010BD01204042FBE7C0
S11304F0A5A50000C52A000010B592B24068014BC2
S1130500984710BDF52A000010B5002802D0024813
S1130510024B984710BDC046E82300202D2D000053
S113052070B505000E0003200849094B14009847D4
S1130530084B310028009847031E04D0064B074A95
S113054058601A609C60180070BDC0469546000053
S113055057030000C9140000A0230020B4B4000015
S113056010B5041E0AD0064B02689A4206D1032035
S1130570044B054998476068044B984710BDC04632
S1130580B4B4000057030000AC460000FD110000A5
S113059037B5041E15D00C4B026800249A4210D1C2
S11305A06B46DD1D2A000B214068084B9847A0428A
S11305B002D12C782407E40F220005490320054BBF
S11305C0984720003EBDC046B4B400002D12000080
S11305D0C546000057030000F7B507000D000028CA
S11305E02CD0174B02689A4228D116490320164B87
S11305F098476B46DE1D32000B217868134B9847F1
S1130600041E14D00200124903200F4B9847012006
S1130610104B013D9847002DEBDC230032780A4C47
S11306200D490320A047022464422000FEBD01229C
S113063033781342EBD1002DF7DCEEE70124F3E726
S1130640B4B40000DC460000570300002D12000083
S1130650EE460000450300000347000070B5041E89
S113066015D00C4B02689A4211D10B4903200B4D53
S1130670A8470C2203216068094B9847002805D03D
S1130680020008490320A8470220404270BD01200F
S1130690FBE7C046B4B400003E4700005703000027
S11306A05D1300004C470000F8B505000E0000285B
S11306B020D0114B02689A421CD10A0003200F4932
S11306C00F4CA0470F4F002E0FD00F490320A04717
S11306D0592208216868B847002805D002000B4950
S11306E00320A04702204042F8BD09490320A04747
S11306F03200EEE70120F6E7B4B4000060470000E2
S1130700570300005D1300006F4700004C470000D2
S11307107B470000F7B5041E019122D0124B0268FA
S11307209A421ED111490320114DA84701212000EE
S1130730104FB847061E06D002000F490320A847F1
S113074002204042FEBD01980C4B98473100200026
S1130750B8470028F6D0020007490320A847032021
S1130760EFE70120EDE7C046B4B40000894700007C
S113077057030000A90600009C4700004503000041
S113078073B5041E3DD0204B02689A4239D11F49EB
S113079003201F4DA8471F4A002160681E4B98473D
S11307A0021E05D003201D49A8470220404276BD01
S11307B06B46DE1D320007216068194B9847021E04
S11307C002D133781B0705D4032033781549A84791
S11307D00320EBE701212000134B9847021E04D0AD
S11307E003201249A8470420E0E764212000104BAD
S11307F098470028DBD002000E490320A8470520B3
S1130800D4E70120D2E7C046B4B40000B0470000EA
S113081057030000BD4700009D1B0000C6470000B1
S11308202D120000D94700001507000012480000EF
S1130830D90500002D480000F7B5061E58D02D4BF1
S113084002689A4254D12C4903202C4DA847300009
S11308502B4FB847041E05D02A490320A84700247B
S11308602000FEBD28490320A847284A21007068BB
S1130870274B9847021E05D026490320A847022487
S11308806442EDE76B46DC1D220007217068224BB1
S11308909847021E02D12378DB0605D423781F492A
S11308A00320A8470324EBE7012130001C4B9847A1
S11308B0021E04D01B490320A8470424E0E7642156
S11308C03000194B9847041E05D002001749032035
S11308D0A8470524D4E73000B847002804D11449B8
S11308E00330A8470624CBE712490320A847B7E7FB
S11308F00124C5E7B4B400005648000057030000C3
S1130900910500006B480000575300008B4800001D
S11309109D1B0000C64700002D12000094480000F3
S11309201507000012480000D9050000C748000060
S1130930084900002D49000070B5041E1ED0104B5C
S113094002689A421AD10F4903200F4DA84701218A
S113095020000E4B9847021E05D003200C49A847DF
S11309600220404270BD20000A4B98470028F9D06D
S1130970020009490320A8470320F2E70120F0E719
S1130980B4B40000494900005703000015070000F3
S1130990124800005D06000064490000F7B5060037
S11309A00D00002835D01D4B02689A4231D11C49F4
S11309B003201C4B98476B46DF1DB3683A005B6805
S11309C070689989184B023189B29847041E07D080
S11309D0020016490320134B9847022464420CE09A
S11309E004223B78134212D1013A134213D001205E
S11309F00F4B013D9847002DDDDC23003A78094C6C
S1130A000C490320A047032464422000FEBD0324B4
S1130A10E4E70124F8E7002DF7DCEEE7B4B40000C6
S1130A207A49000057030000651500009149000051
S1130A3045030000A449000070B504000D0000281F
S1130A4010D00A4B02689A420CD10A0003200849CC
S1130A50084B9847A3682A005B6860689989064B2D
S1130A60984770BD01204042FBE7C046B4B4000083
S1130A70DF490000570300005D16000070B5041E36
S1130A8027D0154B02689A4223D114490320144DF0
S1130A90A847FA2120008900124EB0471249021ECD
S1130AA013D105212000114B9847021E05D00320C5
S1130AB00F49A8470320404270BDFA212000890055
S1130AC0B0470028F8D002000A490320A8470220B2
S1130AD0F1E70120EFE7C046B4B40000A24A0000E9
S1130AE0570300009D090000194A0000390A00005C
S1130AF04D4A00006F4A0000F7B505000191160049
S1130B001C0000284DD0284B02689A4249D1002E7F
S1130B1047D03000731C11D0012C42DD0B002200A1
S1130B2022490320224FB847022C0ED132000199EA
S1130B306868204B9847021E01D10020FEBD0320A7
S1130B401D49B84702204042F8E7802C05DD032008
S1130B5022001A49B8470320F5E701996868184B41
S1130B609847021E04D003201649B8470420EAE738
S1130B706110013989B26868134B9847021E04D08A
S1130B8003201249B8470520DDE7220031006868D8
S1130B900F4B9847021ED0D003200E49B8470620B9
S1130BA0D1E70120CFE7C046B4B40000C24A000038
S1130BB057030000E1150000E64A0000FB4A00006C
S1130BC0951800001B4B0000FD1A0000314B00007B
S1130BD025180000494B0000F7B5050001911600E7
S1130BE01C0000284ED0284B02689A424AD1002E9D
S1130BF048D03000731C11D0002C43DD0B002200C0
S1130C0022490320224FB847012C0ED1320001990A
S1130C106868204B9847021E01D10020FEBD0320C6
S1130C201D49B84702204042F8E780235B009C42FC
S1130C3005DD032022001949B8470320F3E7019991
S1130C406868174B9847021E04D003201549B8471B
S1130C500420E8E7611EC9B26868134B9847021E76
S1130C6004D003201149B8470520DCE722003100F5
S1130C7068680F4B9847021ECFD003200D49B84730
S1130C800620D0E70120CEE7B4B40000654B000095
S1130C90570300006515000091490000FB4A00005D
S1130CA0951800001B4B0000A11A0000894B00009E
S1130CB0B91700009F4B0000F7B51D0001232B401E
S1130CC0140006000F0001932A000F4903200F4B64
S1130CD09847002C14D02000631C0AD0002D0FDD8F
S1130CE0019B002B06D12B00390030002200084C58
S1130CF0A047FEBD22002B0039003000054CF7E769
S1130D0001204042F5E7C046B94B000057030000FC
S1130D10F90A0000D90B0000F0B505008FB00028D7
S1130D2000D188E0454B02689A4200D083E04449F0
S1130D300320444EB0470AAB03931900102268689D
S1130D40414B9847041E06D0020040490320B04797
S1130D50022464426CE03E4B039A00933D49102305
S1130D6003203D4FB8473D4B039A00933C4907236A
S1130D700320394FB847394B0CAA00930323394950
S1130D801800354FB847354B2B220093032302A993
S1130D90521818003449304FB847039B3349DA7B63
S1130DA00320B047324B2100686898470009C2B25B
S1130DB030490320B04728002F4B9847002837D0EC
S1130DC0AB6806AA5B682800D9892C4C0E23A0477F
S1130DD0021E04D02A490320B0470324B9E7AB68B4
S1130DE005AF5B683A0059892800013189B20123B3
S1130DF0A047041E05D0020022490320B047042462
S1130E00A7E7134B06AA009303231F491800124DAA
S1130E10A84713220E4B02A9521800931B49032022
S1130E200A230D4DA8473A78194941320320B047A7
S1130E3020000FB0F0BD01248BE7C046B4B400001D
S1130E40CD4B0000570300005D1B0000DF4B00008A
S1130E5028580000F74B000055030000AF4C000079
S1130E60FD4B0000094C0000184C0000274C00000A
S1130E70311300003A4C000091050000B90C000049
S1130E804A4C0000694C0000874C0000934C000061
S1130E909F4C0000F7B50500019116001C000028C6
S1130EA050D0294B02689A424CD1002E4AD03000CF
S1130EB0731C15D0012C45DD0B00220023490320AF
S1130EC0234FB847022C12D1737832781B02D21800
S1130ED092B2019968681F4B9847021E01D1002005
S1130EE0FEBD1D490320B84703204042F8E7802394
S1130EF09B009C4202DD22001849F3E701996868CF
S1130F00174B9847021E04D003201649B847042003
S1130F10EBE76110013989B26868134B9847021EE8
S1130F2004D003201149B8470520DEE72200310030
S1130F3068680F4B9847021ED1D003200D49B8476B
S1130F400620D2E70120D0E7B4B40000DE4C000054
S1130F505703000005170000034D0000174D000063
S1130F60951800001B4B0000FD1A0000314B0000D7
S1130F70D11900003E4D0000F7B50500019116009F
S1130F801C00002852D02A4B02689A424ED1002EEF
S1130F904CD03000731C16D0002C47DD0B0022000F
S1130FA024490320244FB847012C0DD132780199EC
S1130FB06868224B9847021E11D0032020491E4B1B
S1130FC0984702204042FEBD80235B009C4206DD20
S1130FD0032022001B49184B98470320F2E701998C
S1130FE06868194B9847021E05D003201749124B15
S1130FF098470420E6E7611EC9B26868144B984715
S1131000021E05D0032013490B4B98470520D9E74E
S1131010220031006868104B98470028D3D00200A2
S11310200E490320044B98470620CBE70120C9E76B
S1131030B4B400005A4D0000570300005D160000D0
S1131040034D00007F4D0000951800001B4B00006D
S1131050A11A0000894B0000111900003E4D000048
S1131060F7B51D0008AB1B78140006000F000193B0
S11310702A000F4903200F4B9847002C14D020005E
S1131080631C0AD0002D0FDD019B002B06D02B0022
S1131090390030002200084CA047FEBD22002B007E
S11310A039003000054CF7E701204042F5E7C0461F
S11310B0A04D000057030000950E0000790F0000BA
S11310C0F0B587B004930CAB1B78050002930DAB0D
S11310D01B780F0003920593002859D02D4B02680A
S11310E09A4255D12C4903202C4CA047FA212800C0
S11310F089002B4EB047021E06D003202949A04781
S11311000220404207B0F0BD27490320A047274BE7
S1131110042128009847031E05D0032004222449F3
S1131120A0470320EDE7FA2128008900B047021EFA
S113113004D003201F49A0470420E2E7059B039A3B
S113114000933900049B28001B4FB847021E04D0AB
S113115003201A49A0470520D3E719490320A047D3
S1131160124B029928009847031E05D00320029AC7
S11311701449A0470620C4E7FA2128008900B04793
S11311800028BFD0020010490320A0470720B8E779
S11311900120B6E7B4B40000B54D000057030000C9
S11311A09D090000CA4D00000A4E0000390A0000E3
S11311B04D4A00001C4E0000611000005B4E000010
S11311C0744E0000844E0000AA4E000037B501247E
S11311D025009D4301950094014CA0473EBDC046A7
S11311E0C110000013B504AC2478019403240094C6
S11311F0014CA04716BDC046C110000010B5041E26
S11312000AD0064B02689A4206D10420044B0549D1
S113121098476068044B984710BDC046C3C300009C
S113122057030000E64E0000FD230000F0B55523EF
S113123016000F2285B003AD2B700A40D53B134333
S1131240041E6B7022D0124B02689A421ED1002EEB
S11312501CD00A0004200F490F4FB8470123009304
S11312600A33022260686B4429000C4CA047020038
S1131270012805D004200A49B8470220404203E06F
S11312806B460020DB7A337005B0F0BD0120F5E732
S1131290C3C30000F94E0000570300009528000066
S11312A0895B0000F7B5041E2FD0194B02689A42DF
S11312B02BD118490420184DA8476B46DE1D320077
S11312C001212000154FB847002805D014490420F7
S11312D0A8470224644212E03278002A02D011495D
S11312E00420A847200032000021B847041EEDD195
S11312F03278002A05D10C490420A847033C200079
S1131300FEBD0A490420A847F9E70124E2E7C046E4
S1131310C3C30000114F0000570300002D1200004A
S1131320234F0000324F0000534F00007B4F00005A
S113133013B56B46DC1D2200054B9847021E05D0F1
S113134004200449044B9847002016BD2078FCE78C
S11313502D120000EE4600005703000073B555231C
S113136005000F2001AC23700840953B03436370D4
S1131370A270002D16D00C4B2A689A4212D10A0092
S113138004200A490A4EB047032221006868094B29
S11313909847002805D0020007490420B0470220DE
S11313A0404276BD0120FBE7C3C300008F4F00001D
S11313B0570300009D25000037590000F7B56B4620
S11313C0DF1D002304000D003B7098425DD0304BBC
S11313D002689A4259D1E121406849022D4B98474D
S11313E02D49021E4CD10822032120002B4EB04768
S11313F0021E06D004202A492A4B98470520404261
S1131400FEBD802202212000B047021E05D0042028
S11314102549244B98470620F1E7244B9D420DDDD6
S1131420234B9D4222DD234B01269D4207DD0420F0
S11314302A0021491B4B98470220E0E703263A0083
S1131440092120001D4B9847002802D13B78B34264
S11314500ED0320009212000104B9847021E07D0FD
S1131460042017490F4B98470320C8E70226E6E7F4
S113147029006068074B98470028C1D00200114931
S11314800420084B98470420B9E70120B7E7C04679
S1131490C3C3000031240000A44F00005D1300000A
S11314A0C74F000057030000E94F0000E86E030037
S11314B0D0DD0600A0BB0D000B5000002D12000073
S11314C03C5000005F500000F7B51B4B0400019135
S11314D004201A499847E12120004902184B9847F3
S11314E0051E19D0174B184A0327136013005860C0
S11314F001991548154B9847041E0ED03B00020075
S1131500134904200C4EB0472800124B98470E484C
S1131510013F0BD3002CEBD1FEBD0B480E4B98477B
S1131520041EF4D03B0002000C49EAE7002CF3D07F
S11315300B4B98470020EFE7570300007A50000058
S113154059270000C3C30000AC230020BD130000D2
S11315508B500000B5260000A5120000AD5000001D
S1131560FD1100005523F0B5042585B003AC2370AC
S11315700B0A060017006570A170E370002823D0E1
S1131580124B02689A421FD1002F1DD00A00280076
S11315900F49104B9847012300930A332A00210076
S11315A06B4470680C4CA0470200012806D0280048
S11315B00A49084B98470220404203E06B4600204A
S11315C0DB7A3B7005B0F0BD0120F5E7C3C3000032
S11315D0CC5000005703000095280000895B0000F0
S11315E05523F0B587B005AC2370503B63700B0AEC
S11315F0061E0392A170E37023D0134B02689A4233
S11316001FD10A0004201149114FB847022304AD29
S11316100093042221002B0070680E4CA0470200A6
S1131620022805D004200C49B8470220404206E0B5
S113163000206A782B7812021343039A138007B0B0
S1131640F0BD0120F2E7C046C3C30000CC50000047
S11316505703000095280000895B00001300552201
S1131660F0B585B003AD2A70113A6A700A0AEA70BF
S11316706A460B241372FF226C44061EA970227062
S113168031D01A4A006890422DD10A00042018492A
S1131690184FB847012304220093290023007068DF
S11316A0154DA8470200012802D12378402B09D008
S11316B00B236B441B7811490420B8470220404295
S11316C005B0F0BD0090230002A97068A84702008D
S11316D0012803D1217800204029F1D00B236B4449
S11316E01B780749E8E70120E9E7C046C3C30000C7
S11316F0E15000005703000095280000FA50000054
S11317001A51000013005522F0B587B005AD2A70B8
S1131710103A6A700A0AEA706A4606006846137448
S11317200F241A0A4274FF226C44A9702270002EFE
S113173033D01B4A306890422FD10A000420194943
S1131740194FB8470123042200932900230070682D
S1131750164DA8470200012802D12378402B0AD055
S11317600F236B441B78124904200F4CA04702201E
S1131770404207B0F0BD00900222230004A9706823
S1131780A8470200012803D1217800204029F0D085
S11317900F236B441B780749E6E70120E8E7C046BE
S11317A0C3C300003D51000057030000952800000A
S11317B0FA5000001A510000F0B585B004000F0083
S11317C016001149022203A8104B9847002C19D087
S11317D00F4B22689A4215D10E4904200E4DA8479A
S11317E00096022260683B0003A90C4CA04702004B
S11317F00020964204D004300949A8470220404200
S113180005B0F0BD0120FAE7E24E0000F943000004
S1131810C3C300005851000057030000952800007E
S1131820895B0000F0B5160002220F00124985B052
S11318300400891803A8114B9847002C19D0104BA9
S113184022689A4215D10F4904200F4DA8470096EB
S1131850022260683B0003A90C4CA0470200002050
S1131860964204D004300A49A8470220404205B0F9
S1131870F0BD0120FAE7C046E24E0000F943000043
S1131880C3C300006E5100005703000095280000F8
S1131890895B00005523F0B585B003AC2370143385
S11318A063700B250B0AE370FF236D4407000A00E5
S11318B0A1702B7000281ED0104B016899421AD1D8
S11318C00F4904200F4EB047012300930422210046
S11318D02B0078680C4CA0470200012803D129781A
S11318E00020402905D004202B780849B047022065
S11318F0404205B0F0BD0120FAE7C046C3C3000072
S113190085510000570300009528000096510000FF
S11319105523F0B589B007AC23700F3363700B788F
S1131920051E03910592A37043D0234B02689A428B
S11319303FD10B2621490420214FB84704ABF618A8
S11319400123210000931F4C330003226868A04741
S11319500400012802D13378402B24D033782200AC
S113196019490420B8470220404220E00B2704AB69
S1131970FF18039B04971919012301220093686837
S11319803B00104FB8470200012803D1049B1B7889
S1131990402B07D033780D49009304202300084CD2
S11319A0A047E0E70134059B9C42DFDB002009B03F
S11319B0F0BD0120D8E7C046C3C30000BB510000FE
S11319C05703000095280000D0510000F351000097
S11319D05523F0B50B2689B007AC23701033637020
S11319E00B780500A3704B780391E37004ABF618F1
S11319F0FF2304923370002844D0234B02689A4298
S1131A0040D122490420224FB847012304220093E5
S1131A102100330068681F4CA047020001280AD146
S1131A203378402B07D102240590049B9C420CDBA5
S1131A30002009B0F0BD0B2304A95B1804201B7817
S1131A401549B84702204042F3E70B2604ABF618C9
S1131A50039B02221919059B686800930D4F3300FC
S1131A60B8470200012802D13378402B08D03378DC
S1131A700420009309492300054CA0470320E2E712
S1131A800234D2E70120DEE7C3C300001B5200008A
S1131A905703000095280000D0510000F3510000C6
S1131AA0552373B501AC23704B3305000A006370F2
S1131AB0A170002815D00C4B0168994211D10B4933
S1131AC004200B4EB047032221006868094B984755
S1131AD0002805D0020008490420B04702204042F3
S1131AE076BD0120FBE7C046C3C3000031520000AD
S1131AF0570300009D25000037590000552373B596
S1131B0001AC23704C3363700B0A05000A00A1700A
S1131B10E370002815D00C4B0168994211D10B4990
S1131B2004200B4EB047042221006868094B9847F3
S1131B30002805D0020008490420B0470220404292
S1131B4076BD0120FBE7C046C3C30000425200003B
S1131B50570300009D2500003759000070B50400AC
S1131B600E00150000280ED0084B02689A420AD1D4
S1131B702A0007490420074B98472A00310060686F
S1131B80054B984770BD01204042FBE7C3C30000EA
S1131B905552000057030000F92800005523F0B502
S1131BA085B003AC2370753B0B43637008238B40F3
S1131BB0061E0192009333D01A4B02689A422FD129
S1131BC00A0004201849194FB847210002227068FE
S1131BD0174B9847041E09D16B4605001B780093E8
S1131BE0009B9D4209DB200005B0F0BD02001149B5
S1131BF00420B84702246442F5E7009B019A5B1B6A
S1131C00D318013B197870680B4B9847031E05D015
S1131C102A000A490420B8470324ECE70135DFE72A
S1131C200124E8E7C3C300006C520000570300001E
S1131C309D25000037590000ED2700007A5200006E
S1131C40F0B585B0071E02910392009334D01C4B6B
S1131C5002689A4230D11B4902201B4CA0473B79B1
S1131C60002B02D119490220A0470024009B1E1B0F
S1131C7080235B009E4200DD1E00029B32001B1984
S1131C8013490220104D0193A847039B114D1A19C3
S1131C906B46B86899883300A847051E07D0020030
S1131CA00D490220084B9847280005B0F0BD009B61
S1131CB0A419A342DADCF7E701256D42F4E7C04634
S1131CC0D2D20000A852000057030000BB5200000B
S1131CD0D7520000790F0000F852000070B50500DB
S1131CE00E00140009490220094B9847094B2200B1
S1131CF0310028009847031E06D0074B074ADC60D2
S1131D001A60002298601A71180070BD1753000001
S1131D105703000021050000B4230020D2D20000A4
S1131D2010B5041E0AD0064B02689A4206D102205E
S1131D30044B05499847A068044B984710BDC0461A
S1131D40D2D20000570300002653000061050000B2
S1131D5010B5041E0BD0074B02689A4207D102202B
S1131D60054B06499847A068054B984710BD0120CC
S1131D704042FBE7D2D20000570300003753000073
S1131D80190D000070B5041E16D00C4B02689A425F
S1131D9012D102200A490B4DA847A0680A4B984764
S1131DA0002806D0020009490220A8470220404228
S1131DB001E00123237170BD0120F8E7D2D20000B5
S1131DC05153000057030000390800007553000008
S1131DD070B5041E19D00E4B02689A4215D10379CE
S1131DE00020834210D002300A490B4DA847A06856
S1131DF00A4B9847002806D0020009490220A84748
S1131E000220404200E0207170BD0120F9E7C04685
S1131E10D2D2000092530000570300003909000099
S1131E20B553000070B5041E1CD00F4B02689A42D3
S1131E3018D10E4902200E4DA8472379002B02D059
S1131E400C490220A847A0680B4B9847021E05D1F5
S1131E5002200A49A8470220404202E00123002050
S1131E60237170BD0120F7E7D2D20000EF530000C8
S1131E70570300000F540000810700003454000091
S1131E8070B5041E1BD00F4B02689A4217D10E493D
S1131E9002200E4DA8472379002B05D102200C49BE
S1131EA0A8470220404270BDA0680A4B984700280A
S1131EB0F9D0020008490220A8470320F2E70120D4
S1131EC0F0E7C046D2D20000495400005703000096
S1131ED05C5400007D0A000072540000F0B589B023
S1131EE005000E0014000793002800D169E0364B6A
S1131EF002689A4265D1079B002B62D033490220C5
S1131F00334FB8472B79002B05D102203149B8470C
S1131F100220404223E03288A24201D91419A4B21B
S1131F200E9BE11873889B18994206DD02200E9BD4
S1131F3022002949B8470320EBE7B7880E9B3900F4
S1131F40D8190138254B98470E9B0690059300231A
S1131F5004940393039B069A934202DB002009B086
S1131F60F0BD049B039A00931D49069B0220184E62
S1131F70B047059A3B00974200DD1300049A079985
S1131F80121B8A1800206946164E098A0090A86818
S1131F90B047049B0600DB190493059BDB1B0593E8
S1131FA000280BD0020010490220094CA04702204F
S1131FB03300039A0D49A0470520AAE7039B013388
S1131FC0C7E70120A5E7C046D2D200008B54000029
S1131FD0570300005C540000A2540000D5360000F2
S1131FE0CD540000E5110000F05400000855000035
S1131FF0F0B587B0029302AB9D1D2A80344B026872
S113200004000F009A4200D060E0C36831495B6865
S113201002209B89304E0193B0472379002B04D1D1
S11320202E490220B04702200EE039882B889942BD
S113203001D9CB182B807B882A885B189A4206DB4F
S113204002202749B0470320404207B0F0BDFA21DF
S1132050A0688900234B9847021E03D0224903201D
S1132060B047E0E701990223083189B22A00A06849
S11320701E4EB047031E06D002202A881C49164C67
S1132080A0470420E0E70E2502ABED186B4601994A
S11320901B8906312B8089B202232A00A068B0472D
S11320A0031E06D002202A8812490B4CA0470520A3
S11320B0CAE70721A068104B98470028C5D0020042
S11320C00E490220044B98470620BDE70120BBE7D8
S11320D0D2D2000027550000570300005C540000D2
S11320E03C5500009D090000CA4D0000790F000016
S11320F05D5500008E550000390A0000BC550000F3
S113210010B5002808D0064B04689C4204D1C9B21B
S1132110C068044B984710BD01204042FBE7C0460D
S1132120D2D2000009030000F0B58BB004900291F4
S113213007921D00002800D179E002683D4B03920C
S11321409A4200D073E0079B002B00D16FE03A491C
S113215002203A4FB847049B1B79002B05D138491C
S11321600220B847022464422FE008AE3200002166
S11321700498344B9847041E04D033490220B847CE
S11321800324F0E73388029A7188934202DD9A1897
S113219092B20292029A5B1852199A4207DD274CB6
S11321A02B00029A29490220A0470424DBE7B788C0
S11321B0274BE8190138390098470026029B0690FE
S11321C005950393069B9E4202DB20000BB0F0BDF5
S11321D0039B320000931F49069B0220174DA8471A
S11321E0059A3B00974200DD13000299039A049874
S11321F0521A0799184D8A18694680688989A84730
S1132200039B0500DB190393059BDB1B0593002847
S11322100BD00200094C11490220A0472B003200C8
S11322200F490220A04706249DE70136CAE701248E
S113223099E7C046D2D200000457000057030000BB
S11322405C54000001210000EA5600001A57000007
S1132250D536000044570000CD110000F0540000B2
S113226066570000F0B585B00D0016001F0002AAE5
S113227001210A4B04009847002807D0022008498E
S1132280084B98470220404205B0F0BD0097330048
S11322902A0002A92000044CA047F5E70121000010
S11322A0EA56000057030000DD1E0000F0B585B0BB
S11322B00D0016001F0002AA02210A4B04009847D1
S11322C0002807D002200849084B984702204042C2
S11322D005B0F0BD009733002A0002A92000044C89
S11322E0A047F5E701210000EA560000570300006B
S11322F0DD1E0000F0B587B001910292039304AA99
S11323000321124B060098470500041E09D010490A
S11323100220104B984703256D42280007B0F0BDFA
S11323200134039B9C42F8DA019A029B12191B5D4B
S113233092B204A93000084FB847031EF0D022001F
S113234006490220034CA0470225E5E701210000CD
S1132350EA56000057030000F11F000084570000F4
S1132360F0B51F0089B01E4B019204AA05000E00AF
S113237013CB13C21B681360002D2ED0194B2A688F
S11323809A422AD118490220184B9847002402AADD
S113239021002800164B9847002807D0022022006D
S11323A01449124B9847604209B0F0BD02AB19883A
S11323B0B1420DD85B88F2195B189A4208DCA4007C
S11323C004ABE4583B00019A31002800A047EBE736
S11323D00134042CDBD1084CF4E701204042E3E74C
S11323E098520000D2D20000A85700005703000002
S11323F001210000B9570000411C000010B5041E63
S11324000CD0074B02689A4208D105200549064BB7
S113241098476068002801D0044B984710BDC04617
S1132420E1E10000DE570000570300000905000049
S1132430F7B504000F00002824D0134B02689A4219
S113244020D1250011490520114E0835B047082236
S11324502900104B68469847606869460E4B009700
S11324609847041E07D003003A000C490520B047E2
S11324700224644204E0082269462800054B984778
S11324802000FEBD0124F4E7E1E10000EB57000069
S113249057030000F943000065030000FE570000E5
S11324A0F0B587B006000F00039200284ED02E4BE3
S11324B002689A424AD12D4B0A0000932C49039B8F
S11324C005202C4CA04770682B4B9847021E03D064
S11324D02A4905202A4B98470024039B9C4202DB8F
S11324E0002007B0F0BD0F2102ABC9183B5D0122EB
S11324F00B707068234B9847051E07D002002249D1
S113250005201F4B984702204042EAE704000120BF
S11325101E4B98470F2302A95B181900012270680B
S11325201B4B98472D18012D12D00134652CEED188
S113253005202A001749124B98470320E4E7306925
S1132540002801D0114B98470134C6E70120DBE78E
S113255002AA3B5DD27B9342F1D0009405200E4940
S1132560074CA0470420CFE7E1E100002658000013
S11325701A58000055030000A50400002E5800005E
S113258057030000D10400004E580000450300002A
S1132590F9040000A35800006D580000F0B50600CF
S11325A085B00F001400002860D0334B02689A42B3
S11325B05CD1324B0A000093314923000520314D90
S11325C0A84710220021304B304898477068304BA0
S11325D09847021E03D02F4905202F4B98472F4BB5
S11325E022003900706898476523051E03930FD0B5
S11325F00300294D22002A490520A84703256D42DE
S1132600A54228D100212148A14219DB250022E05E
S11326100120244B984722001C497068224B98479C
S11326202D18AC42EED0039B013B0393002BEFD15A
S11326302B002200184D1D490520A8470425DEE77C
S11326407B5C425C93420FD00091134D18490520E6
S1132650A84705256D423069002801D0114B9847E1
S1132660A54205D1002503E00131CDE701256D42E6
S1132670280005B0F0BDC046E1E100002658000086
S11326801A580000550300000B440000C423002026
S1132690A50400002E58000057030000D1040000D8
S11326A0C258000045030000F9040000E658000089
S11326B06D580000F0B5002785B001AE04003770F6
S11326C07770B84236D01C4B02689A4232D11B490B
S11326D005201B4DA84796235B000293253B02A9C6
S11326E0FF3B0B714F7160680237164B8F7198472F
S11326F0021E06D005201449A8470220404205B016
S1132700F0BD3A0031002000104B9847021E04D05F
S113271005200F49A8470320F0E72100606808312D
S1132720084B98470028EAD002000A490520A84728
S11327300520E3E70120E1E7E1E100004A59000058
S113274057030000650300006E5900009D2500003A
S113275094590000B6590000F7B50B0002000600BA
S11327600F0005201849194CA0476D4608232B710A
S1132770063B6B71AB7169463000154B0097984767
S1132780041E1AD0134E144B70603360012333615E
S113279033000097083306CD06C330000F4B98472B
S11327A03400021E07D00E490520084B984730001C
S11327B00C4B984700242000FEBD32000A49052036
S11327C0024B9847F7E7C046DF5900005703000063
S11327D025040000D4230020E1E10000B526000018
S11327E0025A0000FD230000225A000007B56B4680
S11327F0D971073319000122014B98470EBDC04619
S1132800A1240000F0B5070087B00E0015000028D1
S11328102FD0194B02689A422BD10B230024059325
S1132820164B2A00310078689847154B241801206C
S11328309847A5420FD0059B013B0593002BEFD190
S1132840104B029500930194230032000E49052099
S11328500E4FB84700E02C000A4B029500930194F8
S1132860230032000A490520084DA847200007B07C
S1132870F0BD01246442F9E7E1E10000F90400003D
S113288045030000265800009C5A00005503000030
S11328907E5A0000F7B505000F0016000193104999
S11328A0089B05200F4CA0473200390028000E4B2E
S11328B09847021E05D005200C49A047022040423B
S11328C0FEBD0B4B089A019928009847089B834248
S11328D0F6D0020007490520A0470320EFE7C046D1
S11328E0F25A0000570300009D250000205B000001
S11328F005280000435B0000F0B585B005000F001B
S113290014001349022203A8124B9847002D1CD02F
S1132910114B2A689A4218D110490520104EB0472D
S1132920102C00DD10240222280000943B0003A98F
S11329300C4DA84702000020A24204D005300A49E9
S1132940B0470320404205B0F0BD0120FAE7C0467D
S1132950DC570000F9430000E1E10000745B000073
S113296057030000952800007E5B0000FEE700008E
S11329701148124970B5884204D00023104CCA187B
S1132980A24213D300210F4B0F4A934212D3FF21CB
S11329900E4B0F4A8B43936080230E4A51680B43BE
S11329A053600D4B98470D4B9847FEE7C5580433C9
S11329B01560E4E702C3E8E7F05C000000000020D3
S11329C05023002050230020382400200000000061
S11329D000ED00E000400041B143000099350000E3
S11329E0064B40211A00D83211604322C4331A60C6
S11329F01023034AD1690B43D36170470018004088
S1132A00000400400D4B0122180030B5C830017895
S1132A100F2491431143017019000320B4310D7840
S1132A20C933A543284308701878904302431A70A9
S1132A300B781C40302323430B7030BD002800402A
S1132A4013B5064B98470023054A009305492033E4
S1132A50054C0648A047064B984713BDE1290000E2
S1132A606C23002000100042752C0000E823002095
S1132A70052A000010B5024B9847024B984710BD39
S1132A8011300000412A0000EFF31083036072B696
S1132A90BFF35F8F7047BFF35F8F036883F31088C2
S1132AA070470000044B10B51C68044B9847044B56
S1132AB001002000984710BD8C230020ED2F00005A
S1132AC00930000070B504000D001600002803D082
S1132AD00800431E9841C0B234220449044B98476D
S1132AE03200290023682000984770BDA05B0000D5
S1132AF0D92E000070B504000D001600002803D084
S1132B000800431E9841C0B23D220449044B984733
S1132B103200290063682000984770BDA05B000064
S1132B20D92E00000023083810B50363436A002B34
S1132B3000D0984710BD0023083810B50363C36A5A
S1132B40002B00D0984710BD10B50400044B2C3066
S1132B509847236A083C002B01D02000984710BDF9
S1132B60652F0000F8B504000E001500002804D0FD
S1132B70081E02D01000431E984101273C22384011
S1132B80FF320C490C4B98472200A31D4C32D88FBE
S1132B90118888420AD1A6642000158000220830DA
S1132BA0DA872763054B98472800F8BD1C2040426C
S1132BB0FBE7C046B45B0000D92E0000C53400001A
S1132BC0010010B50400838F44300088083998420E
S1132BD00AD0896C581CA087C95C2000044B984714
S1132BE02000044B984710BD2000034BFAE7C04671
S1132BF0BD340000C5340000CD340000F0B505003C
S1132C0085B00E001400002804D0081E02D0100065
S1132C10431E9841AC2211495200114B9847343558
S1132C2003A8104B9847104B280098470F4B0700F8
S1132C3003A8984733193400F7190193A01B80B2F5
S1132C40BC4202D0019B9C4201D105B0F0BD2100E1
S1132C502800074B98470134F0E7C046B45B0000F6
S1132C60D92E0000892A0000A52F0000972A000011
S1132C70212F0000F8B504000D0016001F000028E5
S1132C8006D0081E04D0101E02D01800431E98411E
S1132C903A221149114B984720003A003100343050
S1132CA00F4B9847002813D12000290008300D4B02
S1132CB0984700280BD10C4B63600C4B23600C4BE2
S1132CC0A3600C4BE3600C4B23610C4B6361F8BDB8
S1132CD00D204042FBE7C046B45B0000D92E000043
S1132CE0E12E0000E9330000FD2B0000652B0000FD
S1132CF0C12B0000492B0000252B0000372B0000BE
S1132D0010B50400431E984161220549C0B2054B29
S1132D1098472000044B08309847002010BDC04657
S1132D20B45B0000D92E00005534000010B5040037
S1132D30431E98416C220549C0B2054B98472000B8
S1132D40044B08309847002010BDC046B45B000017
S1132D50D92E00006D34000070B504000D00002869
S1132D6003D00800431E9841C0B277220249034BA6
S1132D7098472C60002070BDB45B0000D92E000081
S1132D8070B50500431E98410E001400C0B28322A2
S1132D901349144B9847012E11D0002E04D0022E53
S1132DA015D00D20404209E0AC622800621E944117
S1132DB00121E2B208300C4B9847002070BD6C62D0
S1132DC02800621E94410830E2B20221F3E7EC626B
S1132DD02800621E94410830E2B20321EBE7C046AA
S1132DE0B45B0000D92E0000D534000070B5040097
S1132DF0431E98410D00AA22C0B20549054B9847CD
S1132E00200029000830044B9847002070BDC046BC
S1132E10B45B0000D92E00007D34000070B50400BE
S1132E20431E98410D00CB22C0B20549054B98477B
S1132E30200029000830044B9847002070BDC0468C
S1132E40B45B0000D92E00008D34000070B504007E
S1132E50431E98410D00D622C0B20549054B984740
S1132E60200029000830044B9847002070BDC0465C
S1132E70B45B0000D92E00009D34000070B504003E
S1132E80431E98410D00E122C0B20549054B984705
S1132E90200029000830044B9847002070BDC0462C
S1132EA0B45B0000D92E0000AD34000010B522221E
S1132EB00400431E9841FF320449C0B2044B9847B2
S1132EC02000044B3430984710BDC046B45B00006A
S1132ED0D92E0000C92F0000002800D100BE704781
S1132EE070B505000E001400002804D0081E02D09E
S1132EF01000431E9841084B282208499847200097
S1132F00631E184004D16B60A860E8602E6070BD39
S1132F100D204042FBE7C046D92E0000D15B0000E3
S1132F2070B504000D00002803D00800431E98412A
S1132F30C0B24022094B0A499847A368E2689A4202
S1132F4009D00020626813402268D35C2B70A36808
S1132F500133A36070BD0A204042FBE7D92E000074
S1132F60D15B000070B50400431E98410D0051224E
S1132F700A490B4BC0B29847E26863681340226861
S1132F80D554E368A1686268591A914201D99A1A22
S1132F90A26001330020E36070BDC046D15B000035
S1132FA0D92E000010B50400431E98416722C0B218
S1132FB00349044B9847E068A368C01A10BDC04693
S1132FC0D15B0000D92E000010B50400431E9841C7
S1132FD07122C0B20349044B9847E3680020A36000
S1132FE010BDC046D15B0000D92E00000300A02014
S1132FF0584310B5034B02300321984764235843C8
S113300010BDC046C13500000139FDD8704700002D
S113301010B5094B02205A685A60084B9847084B70
S11330209847084B9847084B9847084B9847FF2008
S1133030074B984710BDC04600400041DB300000FC
S113304089300000A130000075300000D930000044
S113305055300000C30706D5034A044B1A62044ADC
S113306059681142FCD17047060101000018004064
S1133070FD0700000822034B9A71043A5A71033A7F
S11330801A71704700040040F821044B4901DA69C1
S11330900A40DA6101221A617047C04600100040FC
S11330A08E220B4B10B51A750A4A022011001478AF
S11330B00442FCD11022D8681042FCD080201A7D32
S11330C002431A750E230A781A42FCD110BDC04679
S11330D0000C0040380C0040704780230321DB05BE
S11330E09A780A40904209D0FF229A719A7808404F
S11330F08A43104398709A79002AFCD070470000E4
S1133100002805DB1F2318401E3B8340014A13603F
S11331107047C04600E100E0002809DB1F23184087
S11331201E3B8340034AD367BFF34F8FBFF36F8FB8
S11331307047C04604E100E0002807DB1F23C022DB
S113314018401E3B8340024952008B507047C046D2
S113315000E100E0C3691942FCD1704710B50400D6
S11331600321034B984720688007C00F10BDC04659
S1133170553100000222036810B5934349001943F6
S11331800160024B0321984710BDC0465531000031
S1133190022210B50368032193430360014B98474F
S11331A010BDC0465531000073B50C4B04000D0032
S11331B0984706000A4B2000984701A8094B9847F6
S11331C0ADB202212000084B9847A58101A8074B06
S11331D0984731002000064B984773BD5D310000CD
S11331E091310000892A000055310000972A00001F
S11331F075310000F7B5114B04000D009847104BD2
S113320007002000984701A80E4B98470E4E200057
S11332100221B04740226368072193436A1E954107
S1133220AD011D4365602000B04701A8074B9847D6
S113323039002000064B9847F7BDC0465D310000B9
S113324091310000892A000055310000972A0000BE
S113325075310000F7B5124B04000D009847114B6F
S1133260070020009847104B01A89847022120002E
S11332700E4EB047072163680D408B431D43200069
S11332806560B04701A80A4B9847002F06D0022377
S113329022680321134323602000B047F7BDC046D2
S11332A05D31000091310000892A00005531000091
S11332B0972A0000F7B5184B0D0004009847174BE8
S11332C007002000984701A8154B984702212000C9
S11332D0144EB047022D1AD0802322685B04134396
S11332E0236020000721B0470F4A63680721134079
S11332F06A1E95416D031D4365602000B04701A817
S11333000A4B984739002000094B9847F7BD2368BA
S1133310084A1340E4E7C0465D31000091310000E3
S1133320892A000055310000FFDFFFFF972A0000C3
S113333075310000FFFFFFFE1C4B70B5040098427E
S113334003D083031B0E042B04D0194A194900200F
S1133350194B9847E369194DDB0711D40226032161
S11333602000A8472368334205D02000144B984717
S113337031002000A8470523032123602000A8472B
S113338020000121A8470F4B200023600321A847F8
S1133390C0239B02636020000721A84700200A4B3A
S11333A0A381A0733034207070BDC0460004004374
S11333B061020000F55B0000D92E000055310000C9
S11333C091310000040010408AFDFFFF054A0523E7
S11333D0904203D0BE231B06C018830A0833D8B218
S11333E07047C0460004004370B50600431E984170
S11333F00C00C0B2C4220E490E4B984720000E4B5D
S11334009847051E12D10D4BB4619C4201D10C4B5F
S11334101E600C4B2000984744B220000A4B98478A
S113342020000A4B98472000094B9847280070BD9C
S1133430F55B0000D92E0000393300000010004273
S113344090230020CD3300001931000039310000F1
S113345001310000022310B580690321026813437F
S11334600360014B984710BD5531000010B58069C9
S1133470014B984710BDC0469131000010B58069DA
S1133480014B984710BDC046A931000010B58069B2
S1133490014B984710BDC046B532000010B5806995
S11334A0014B984710BDC046F531000010B5806946
S11334B0014B984710BDC04655320000836989B25C
S11334C019857047012283699A75704702228369BE
S11334D09A75704770B50400431E98410E00104B56
S11334E01500C0B20F4A1049984702223300934393
S11334F009D1A3690121002D02D119751A7570BD76
S113350099759A75FBE7012E04D10422A369002D55
S1133510F7D1F3E7032EF2D1A3698022F7E7C0467F
S1133520D92E000021020000F55B0000194B10B5F4
S1133530186801238469227E1A4206D0A27D1A42A9
S113354003D023750368984710BD237E01229B078F
S113355007D5A37DD340134203D002232375836888
S1133560F1E7237E5B070BD53723628B1A4202D027
S113357008336383E8E7218D4368C9B29847E3E7DA
S1133580237EDB09E0D080232376C3689847638BCE
S11335909BB2EEE790230020024B10B59847024BF4
S11335A09847FEE715010000FD01000002B47146D2
S11335B049084900095C49008E4402BC7047C04672
S11335C0002243088B4274D303098B425FD3030A5E
S11335D08B4244D3030B8B4228D3030C8B420DD371
S11335E0FF22090212BA030C8B4202D312120902FF
S11335F065D0030B8B4219D300E0090AC30B8B423D
S113360001D3CB03C01A5241830B8B4201D38B03EA
S1133610C01A5241430B8B4201D34B03C01A52418F
S1133620030B8B4201D30B03C01A5241C30A8B42D2
S113363001D3CB02C01A5241830A8B4201D38B02BD
S1133640C01A5241430A8B4201D34B02C01A524161
S1133650030A8B4201D30B02C01A5241CDD2C309D3
S11336608B4201D3CB01C01A524183098B4201D34F
S11336708B01C01A524143098B4201D34B01C01A3A
S1133680524103098B4201D30B01C01A5241C308B2
S11336908B4201D3CB00C01A524183088B4201D321
S11336A08B00C01A524143088B4201D34B00C01A0D
S11336B05241411A00D20146524110467047FFE779
S11336C001B5002000F0F0F802BDC0460029F7D093
S11336D076E7704703460B437FD4002243088B42AE
S11336E074D303098B425FD3030A8B4244D3030B85
S11336F08B4228D3030C8B420DD3FF22090212BA4A
S1133700030C8B4202D31212090265D0030B8B42C5
S113371019D300E0090AC30B8B4201D3CB03C01AAF
S11337205241830B8B4201D38B03C01A5241430B8A
S11337308B4201D34B03C01A5241030B8B4201D37A
S11337400B03C01A5241C30A8B4201D3CB02C01AE5
S11337505241830A8B4201D38B02C01A5241430A5D
S11337608B4201D34B02C01A5241030A8B4201D34C
S11337700B02C01A5241CDD2C3098B4201D3CB01F3
S1133780C01A524183098B4201D38B01C01A5241A2
S113379043098B4201D34B01C01A524103098B42A6
S11337A001D30B01C01A5241C3088B4201D3CB0091
S11337B0C01A524183088B4201D38B00C01A524174
S11337C043088B4201D34B00C01A5241411A00D224
S11337D001465241104670475DE0CA0F00D049428D
S11337E0031000D34042534000229C4603098B42FD
S11337F02DD3030A8B4212D3FC22890112BA030A85
S11338008B420CD3890192118B4208D38901921106
S11338108B4204D389013AD0921100E08909C3098B
S11338208B4201D3CB01C01A524183098B4201D38D
S11338308B01C01A524143098B4201D34B01C01A78
S1133840524103098B4201D30B01C01A5241C308F0
S11338508B4201D3CB00C01A524183088B4201D35F
S11338608B00C01A5241D9D243088B4201D34B007A
S1133870C01A5241411A00D20146634652415B10BC
S1133880104601D34042002B00D54942704763469D
S11338905B1000D3404201B5002000F005F802BDE2
S11338A00029F8D016E770477047C0469E2110B52E
S11338B0C905041C00F0ACFC002803D1201C00F056
S11338C011FC10BD9E21201CC90500F06FFA00F008
S11338D009FC80231B069C466044F2E7F0B557467A
S11338E04E46DE464546E0B544024300C60F83B06B
S11338F00F1C640A1B0EB24653D0FF2B27D0802224
S1133900E400D20414437F22524290469844002398
S113391099469B467D027800FB0F6D0A000E0093CA
S113392024D0FF2846D080230021ED00DB041D4372
S11339307F384746381A4F460F43BF00B946330015
S1133940009A874F53404A46BA5801939746002C31
S11339504ED108239946F7339846FD3B9B467D029A
S11339607800FB0F6D0A000E0093DAD1002D26D1EA
S1133970002001213300009A7A4F53404246101A26
S11339804A460A439200BA581D009746009B2C00F1
S11339909A468B465B46022B31D15346FF210024C5
S11339A038E0002C17D104239946002398460133AC
S11339B09B46AFE7FF20002D0BD10221DAE7280058
S11339C000F030FC431F9D4076235B42181A00210F
S11339D0AFE70321ADE7200000F024FC431F9C4027
S11339E076235B421B1A9846002399469B4691E72F
S11339F00C239946F3339846FC3B9B468AE7032BFA
S1133A0000D1A5E05546012B00D081E0012300211F
S1133A1000242B406402C905600ADB0708431843ED
S1133A2003B03CBC90469946A246AB46F0BD802408
S1133A300023E403FF21EDE7FF210024EAE701234B
S1133A40591A1B2966DD019A134000210024E1E77D
S1133A508023DB031C4238D01D4251D01C43640236
S1133A60640A3300FF21D5E763016C01A3423BD212
S1133A701B260021013801251F0049005B00002F8F
S1133A8001DB9C4201D81B1B2943013E002EF3D1CC
S1133A901C00631E9C410C4301007F310029CEDDD4
S1133AA0630704D00F232340042B00D004342301E4
S1133AB003D501002C4B80311C40FE290DDD012370
S1133AC0019AFF2113400024A4E78023DB031C4355
S1133AD06402640A3300FF219CE70123019AA401D4
S1133AE0640AC9B2134095E71B1B1A260121C2E7D9
S1133AF0009B8B469A4600244CE76302E5D50025DB
S1133B008024E4032C436402640A009BFF2181E7C0
S1133B100195C1E723002020CB40411A8C40611E4F
S1133B208C411C43630704D00F232340042B00D093
S1133B300434630105D50123019A012113400024B3
S1133B4068E70123019AA401640A1340002161E794
S1133B508023DB031C436402640A5346FF2159E7B4
S1133B60105C0000505C0000FFFFFFF7F8B55746FB
S1133B704E464546DE46E0B54702460088467F0A83
S1133B80360EC40F002E47D0FF2E24D0FB00802712
S1133B90FF041F43002399469A467F3E43465D0235
S1133BA05800DB0F6D0A000E984643D0FF283BD027
S1133BB0EB0080250022ED041D437F383618731C6A
S1133BC041469B464B46614013430F2B64D87548CE
S1133BD09B00C3589F46002F42D108239946063BB9
S1133BE0FF269A46DAE74146022A28D0032A00D162
S1133BF0CEE0012A00D0ACE0114000200022CCB27B
S1133C004002D205400AE407104320433CBC9046DE
S1133C109946A246AB46F8BD002F15D10423994618
S1133C20033B00269A46B9E7FF200222002DC5D0A7
S1133C300322C3E7002D19D100200122BEE701248D
S1133C40FF220C400020DBE7380000F0EBFA762678
S1133C50431F9F4000237642361A99469A469DE7B1
S1133C600C239946093BFF269A4697E7280000F063
S1133C70D9FA431F9D4076235B42181A00229DE720
S1133C8080200024C003FF22BAE73D005246ABE780
S1133C903D0021005246A7E73B0C9C462A04120C27
S1133CA02B0C1400604665463F043F0C7C434243A2
S1133CB05D437B43270C9B18FF18BA4203D980232A
S1133CC05B029C46654424043A04240C12199301B3
S1133CD05C1EA3413F0C920E7D191A43AD0115439E
S1133CE02B0104D501235E466A081D4015433200AA
S1133CF07F32002A25DD6B0704D00F232B40042BD1
S1133D0000D004352B0103D53200274B80321D40EF
S1133D10FE2A94DC0124A801400AD2B20C406FE7C9
S1133D208020C003074207D0054205D12843400242
S1133D30400A4446FF2263E738434002400AFF2218
S1133D405EE70124A31A1B2B05DD0C400022002092
S1133D5056E75E46CBE72A002020DA40C31A9D408E
S1133D602B005D1EAB4113435A0704D00F221A40A7
S1133D70042A00D004335A0104D5012401220C4042
S1133D8000203DE701249B01580A0C40002237E73C
S1133D9080200124C00328434002400A0C40FF2233
S1133DA02EE7C046905C0000FFFFFFF7F0B54F46DA
S1133DB0D64646464400C0B5C20F47024802400AF0
S1133DC0844666467B0A4800C90F9A46240E1500AD
S1133DD0DB00000E8946F600FF2800D18FE00121A8
S1133DE04F464F403900914266D0221A002A00DC27
S1133DF09DE000283DD1002E00D18BE0511E00290A
S1133E0000D0B5E001249B1B5A0144D59B019F09B6
S1133E10380000F007FA05388740844200DD96E058
S1133E20041B3A0020200134E240041BA7403B005D
S1133E305F1EBB41002413435A0704D00F221A40CB
S1133E40042A00D004335A0127D50134FF2C00D1B1
S1133E5079E001229B015B0AE4B22A405B02E4059B
S1133E60580AD207204310431CBC90469946A246E8
S1133E70F0BDFF2CE0D08021C9040E431B2A7BDC5B
S1133E8031002020D140821A9640721E96410E4382
S1133E909B1B5A01BAD45A07D0D10122DF082A4009
S1133EA0FF2C33D1002F00D1A8E08023DB033B4358
S1133EB05B025B0AFF24D1E7211A00294CDD0028AC
S1133EC02AD0FF2CB8D08020C00406431B2900DD73
S1133ED0AFE030002027C840791A8E40711E8E4111
S1133EE006439B195901D6D50134FF2C00D185E036
S1133EF001227A491A405B080B4013439CE7002EC9
S1133F0000D070E76BE73B1EC5D100227B025B0A41
S1133F10E4B2A3E714008FE7002E4DD0481E00281A
S1133F2057D19B1901245A01B5D50224E0E7002A90
S1133F3025D1621CD2B2012A72DD9F1B7A0135D5CC
S1133F40F71A0D0064E7012200232A4086E73B00AC
S1133F50634A241A13406FE700296CD1611CC8B26C
S1133F6001284EDDFF2949D09B195B080C0063E74B
S1133F70FF2A41D00A0081E701269B1B89E7002C18
S1133F801CD0FF2821D08024E404524223431B2A5E
S1133F9000DD96E01C002025D440AA1A93405A1E46
S1133FA093412343F31A04000D002DE7002F00D0A2
S1133FB02EE700220024A9E70C003DE7002B58D08F
S1133FC0D243002AEED0FF28E1D13300FF240D00B4
S1133FD032E7FF2910D0010078E7002B6ED0FF24D0
S1133FE0002E00D128E780225146D203114203D08B
S1133FF06146114200D13300FF241DE7FF24002352
S11340002CE7002CE9D1002B63D0002E00D113E75C
S11340109B195A0100D43EE7314A0C0013400BE7C8
S1134020002C1ED1002B2FD1002E4FD033000D00B9
S113403002E7012655E7002C1FD1002B43D0C943CA
S113404000290BD0FF2839D01B2944DC1C00202771
S1134050CC40791A8B40591E8B4123439B19040091
S113406040E7002B1AD1002E24D180270022FF0321
S11340701BE7330004000D00DEE6FF281ED0802479
S1134080E40449422343DFE7002E00D1D4E69F1B1A
S11340907A0100D437E7F31A0D00CDE6FF24002E91
S11340A000D1C9E680225046D2031042A4D0604613
S11340B01042A1D133000D00FF24BDE63300FF24DC
S11340C0BAE601236EE733000400B5E600270022B8
S11340D01CE73300B0E60123C0E7C046FFFFFF7DC5
S11340E0FFFFFFFB41024300C20F490A1B0E0020E1
S11340F07E2B0DDD9D2B0CDC802000040143952BD1
S11341000ADC9620C31AD9404842002A00D108008C
S11341107047034BD018FBE7963B9940F4E7C04641
S1134120FFFFFF7F10B5041E27D000F07BF89E230D
S11341301B1A962B0ADC9622D21A94406402640A53
S1134140DBB26402DB05600A184310BD992B17DC4F
S11341509922D21A002A27DD94402200134C1440DD
S1134160510704D00F210A40042A00D0043462010C
S113417012D4A401640ADBB2E3E700230024E0E7DD
S1134180B9222100D21A91400A00511E8A41052108
S1134190091ACC401443DBE7044B1C409F23A401C1
S11341A01B1A640ADBB2CCE72200D7E7FFFFFFFB50
S11341B08446081C6146FFE71FB500F0B7F80028E5
S11341C001D40021C8421FBD10B500F049F8404297
S11341D0013010BD10B500F0A9F8002801DB002063
S11341E010BD012010BDC04610B500F09FF8002896
S11341F001DD002010BD012010BDC04610B500F047
S113420055F8002801DC002010BD012010BDC04677
S113421010B500F04BF8002801DA002010BD012091
S113422010BDC0461C2101231B04984201D3000C7D
S113423010391B0A984201D3000A08391B09984215
S113424001D30009043902A2105C40187047C0462B
S1134250040302020101010100000000000000004B
S113426070B5420045024E024C00C30F6D0A120E97
S1134270760A240EC90F0120FF2A06D0FF2C03D092
S1134280A24201D1B54206D070BD002DFCD1FF2C55
S1134290FAD1002EF8D18B4206D00120002AF3D1A6
S11342A02800451EA841EFE70020EDE7F0B54200E5
S11342B045024C02C30F48006D0A120E640A000E38
S11342C0C90FFF2A1ED0FF2821D0002A0AD16E422E
S11342D06E41F6B200280FD1002C0DD10020002D24
S11342E009D005E0002801D1002C01D08B4211D067
S11342F0012158420843F0BD002EF7D001200139B6
S11343000843F8E7002DDED002204042F3E7002CFA
S1134310DBD0F9E78242EBDC04DBA542E8D80020DD
S1134320A542E8D20121581E0843E4E7F0B5420053
S11343304D024C004602760A120EC30F6D0A240E7B
S1134340C90FFF2A16D0FF2C18D0002A0AD17042B8
S11343507041C0B2002C15D0002805D001200139CD
S11343600843F0BD002C13D0994214D001205B42C5
S11343701843F6E70220002EF3D1E4E70220002DD3
S1134380EFD1E2E7002DE7D10020002EE9D0EDE7E0
S1134390002DE9D1EAE7A24206DCDFDBAE4203D816
S11343A00020AE42DAD3DCE7012049420843D8E7D3
S11343B070B500260C4D0D4C641BA410A64209D107
S11343C0002601F085FC0A4D0A4C641BA410A64289
S11343D005D170BDB300EB5898470136EEE7B30042
S11343E0EB5898470136F2E7DC5C0000DC5C000027
S11343F0DC5C0000E05C0000002310B59A4200D1B0
S113440010BDCC5CC4540133F8E703008218934216
S113441000D1704719700133F9E702780B78002A4C
S113442003D0013001319A42F7D0D01A70474E566A
S11344304D206368697020657261736520666169E7
S11344406C6564202564006E766D5F6765745F62D9
S11344506C6F636B5F696E666F206661696C65641F
S1134460202564006E766D5F636869705F657261B4
S11344707365206661696C6564202564006E766DE1
S11344805F77726974655F6175746F202564206657
S113449061696C65642025640050726F6772616D98
S11344A02066696E69736865640074696E79313673
S11344B0313700446576696365202573206E6F7417
S11344C020737570706F7274004E766D20696E691A
S11344D07469616C697A65206661696C6564006EF3
S11344E0766D5F6765745F6465766963655F696E41
S11344F0666F206661696C6564004465766963650E
S1134500206973206C6F636B6564282564292E20F1
S1134510506572666F726D696E6720756E6C6F633D
S11345206B207769746820636869702065726173B1
S1134530652E004E564D20756E6C6F636B2064655E
S113454076696365206661696C656420256400751D
S11345507064695F70726F6772616D206661696C07
S113456065642025640000003846000014460000FD
S113457041460000144600004A460000F045000091
S1134580AA440000F045000053460000CC4500005A
S11345905B460000CC45000063460000CC450000AB
S11345A06B460000A8450000734600000080001020
S11345B04000000F0010001180120B0001000013D6
S11345C02000200000148000200000007B46000032
S11345D0008000204000000F0010001180120B002A
S11345E001000013200020000014800020000000BF
S11345F083460000008000404000000F00100011BE
S113460080120B0001000013200020000014800021
S1134610200000008C460000008000804000000F55
S11346200010001180120B00010000132000200074
S1134630001480002000000074696E793332313632
S11346400074696E79333231370074696E793136AA
S113465031360074696E793831340074696E793892
S113466031360074696E793831370074696E793483
S113467031370074696E793431780074696E793831
S113468031780074696E79313631780074696E79E5
S113469033323178003C4150503E20696E697420B9
S11346A06170706C69636174696F6E003C41505055
S11346B03E206465696E6974206170706C69636121
S11346C074696F6E003C4150503E20496E20505238
S11346D04F47206D6F64653A202564003C4150507B
S11346E03E205761697420556E6C6F636B005F6C7C
S11346F0696E6B5F6C646373206661696C656420CA
S113470025640054696D656F7574207761697469F7
S11347106E6720666F722064657669636520746FC6
S113472020756E6C6F636B207374617475732025D0
S113473030327820726573756C74202564003C41B6
S113474050503E2044697361626C65006C696E6B05
S11347505F73746373206661696C6564202564000B
S11347603C4150503E2052657365742025640041DD
S113477070706C792072657365740052656C656144
S11347807365207265736574003C4150503E20543B
S11347906F67676C65205265736574006170705F44
S11347A07265736574206661696C656420256400B4
S11347B03C4150503E20756E6C6F636B004E564DFD
S11347C04572617365006C696E6B5F6B6579206619
S11347D061696C6564202564005F6C696E6B5F6C55
S11347E064637320436869706572617365204B6507
S11347F079206E6F74206163636570746564282525
S113480064292C20737461747573203078253032D8
S113481078006170705F746F67676C655F72657351
S11348206574206661696C6564202564004661696D
S11348306C656420746F20636869702065726173AD
S113484065207573696E67206B6579207265737571
S11348506C74202564003C4150503E20456E7465C4
S1134860722050726F676D6F646500416C72656190
S1134870647920696E204E564D2070726F677261A4
S11348806D6D696E67206D6F6465004E564D507294
S11348906F6720005F6C696E6B5F6C646373204E9E
S11348A0766D204B6579206E6F742061636365704B
S11348B0746564282564292C2073746174757320CD
S11348C0307825303278004661696C656420746FF5
S11348D020656E746572204E564D2070726F67723B
S11348E0616D6D696E67206D6F64653A20646576ED
S11348F0696365206973206C6F636B6564207265FE
S113490073756C74202564004661696C6564207459
S11349106F20656E746572204E564D2070726F67FD
S113492072616D6D696E67206D6F6465004E6F779F
S113493020696E204E564D2070726F6772616D6DE6
S1134940696E67206D6F6465003C4150503E204C99
S1134950656176696E672070726F6772616D206D34
S11349606F6465006170705F64697361626C652077
S11349706661696C6564202564003C4150503E20AA
S11349805761697420666C6173682072656164792B
S1134990005F6C696E6B5F6C64206661696C656452
S11349A02025640054696D656F757420776169749E
S11349B0696E6720666F72207761697420666C6126
S11349C073682072656164792073746174757320EF
S11349D02530327820726573756C74202564003C30
S11349E04150503E204E564D434D44202564206591
S11349F07865637574696E67003C4150503E207061
S1134A00616765206572617365207573696E6720DF
S1134A104E564D204354524C006170705F7761696B
S1134A20745F666C6173685F726561647920746930
S1134A306D656F7574206265666F7265206572615D
S1134A407365206661696C6564202564006170701B
S1134A505F657865637574655F6E766D5F636F6DB2
S1134A606D616E64206661696C6564202564006113
S1134A7070705F776169745F666C6173685F72659B
S1134A806164792074696D656F75742061667465FD
S1134A9072206572617365206661696C65642025A6
S1134AA064003C4150503E20436869702065726147
S1134AB07365207573696E67204E564D20435452BA
S1134AC04C003C4150503E205265616420776F7227
S1134AD064732064617461282564292061646472AC
S1134AE03A20256858005F6C696E6B5F6C643136E0
S1134AF0206661696C6564202564005265616420E8
S1134B0064617461206C656E677468206F757420CD
S1134B106F662073697A65202564006C696E6B5F2B
S1134B2073745F707472206661696C6564202564B7
S1134B30006C696E6B5F72657065617431362066F6
S1134B4061696C6564202564006C696E6B5F6C64DC
S1134B505F7074725F696E633136206661696C657B
S1134B6064202564003C4150503E2052656164201D
S1134B7062797465732064617461282564292061F5
S1134B806464723A20256858006C696E6B5F7265C4
S1134B9070656174206661696C6564202564006CCD
S1134BA0696E6B5F6C645F7074725F696E632066BC
S1134BB061696C6564202564003C4150503E20527C
S1134BC0656164206461746128256429003C415056
S1134BD0503E2044657669636520696E666F006C9B
S1134BE0696E6B5F726561645F7369622066616997
S1134BF06C6564202564005B5349425D005B46613B
S1134C006D696C792049445D005B4E564D20726598
S1134C10766973696F6E5D005B4F434420726576FD
S1134C206973696F6E5D005B504449204F53435D67
S1134C302069732025634D487A005B504449205213
S1134C4065765D206973202564006170705F72650C
S1134C5061645F6461746120736967726F77206651
S1134C6061696C6564202564006170705F726561C0
S1134C70645F646174612072657669642066616949
S1134C806C6564202564005B44657669636520492E
S1134C90445D005B5365726E756D2049445D005B35
S1134CA0446576696365205265765D2069732025C5
S1134CB063003C4150503E20436869702072656136
S1134CC064206E766D006170705F726561645F640C
S1134CD0617461206661696C6564202564003C41EF
S1134CE050503E20577269746520776F7264732048
S1134CF0646174612825642920616464723A202502
S1134D006858006C696E6B5F737431362066616934
S1134D106C656420256400577269746520776F722E
S1134D2064732064617461206C656E677468206FBD
S1134D307574206F662073697A65202564006C6938
S1134D406E6B5F73745F7074725F696E633136206B
S1134D506661696C6564202564003C4150503E20C6
S1134D605772697465206279746573206461746133
S1134D702825642920616464723A20256858005704
S1134D80726974652064617461206C656E6774680F
S1134D90206F7574206F662073697A65202564001E
S1134DA03C4150503E2057726974652064617461BF
S1134DB028256429003C4150503E204368697020F6
S1134DC07772697465206E766D006170705F7761CB
S1134DD069745F666C6173685F726561647920747D
S1134DE0696D656F7574206265666F7265207061A8
S1134DF067652062756666657220636C6561722002
S1134E006661696C656420256400436C6561722089
S1134E107061676520627566666572006170705FB7
S1134E20776169745F666C6173685F7265616479E8
S1134E302074696D656F7574206166746572207085
S1134E406167652062756666657220636C65617270
S1134E50206661696C6564202564006170705F7709
S1134E60726974655F64617461206661696C65640C
S1134E7020256400436F6D6D697474696E672070DA
S1134E80616765006170705F657865637574655FFF
S1134E906E766D5F636F6D6D616E64282564292085
S1134EA06661696C6564202564006170705F776178
S1134EB069745F666C6173685F726561647920749C
S1134EC0696D656F757420616674657220706167C1
S1134ED065207772697465206661696C6564202554
S1134EE06400552455253C4C494E4B3E206465696D
S1134EF06E6974206C696E6B003C4C494E4B3E20CD
S1134F004C4443532066726F6D20307825303278DC
S1134F10003C4C494E4B3E206C696E6B20636865C7
S1134F20636B0055504449206E6F74207265616450
S1134F307900555044492073746174757320657207
S1134F40726F722025642C2073656E642042524572
S1134F50414B0055504449206E6F74204F4B202D17
S1134F60207265696E697469616C69736174696FD3
S1134F706E207265717569726564005550444920EC
S1134F80696E6974204F4B20282530327829003C03
S1134F904C494E4B3E205354435320746F20307879
S1134FA0303278007068795F7365745F626175642C
S1134FB0726174652064656661756C7420666169EC
S1134FC06C6564202564006C696E6B5F7374637335
S1134FD020555044495F43535F4354524C4220662A
S1134FE061696C6564202564006C696E6B5F737421
S1134FF0637320555044495F43535F4354524C41BB
S1135000206661696C656420256400556E73757053
S1135010706F727465642062617564726174652076
S1135020666F72205550444920636C6B2025642CB4
S1135030206D617820302E394D687A006C696E6B72
S11350405F7374637320555044495F4153495F4310
S113505054524C41206661696C656420256400707B
S113506068795F7365745F626175647261746520E9
S11350706661696C6564202564003C4C494E4B3E76
S113508020696E6974206C696E6B006C696E6B5F6D
S11350907365745F696E6974206661696C65642008
S11350A025642C2072657472793D2564006C696EE8
S11350B06B5F636865636B206661696C656420255A
S11350C0642C2072657472793D2564003C4C494E11
S11350D04B3E204C442066726F6D20253034587D41
S11350E0003C4C494E4B3E20535420746F20307882
S11350F03034583A2025303278007068795F747201
S1135100616E73666572206661696C6564202564EE
S11351102061636B2025303278007068795F747287
S1135120616E73666572202332206661696C656402
S11351302025642061636B2025303278003C4C4983
S11351404E4B3E205354313620746F203078303427
S1135150583A2025303478003C4C494E4B3E204C84
S113516044382066726F6D207074722B2B003C4C97
S1135170494E4B3E204C4431362066726F6D207090
S113518074722B2B003C4C494E4B3E2053542070E0
S11351907472202578007068795F7472616E73662A
S11351A06572206661696C6564202564207265738C
S11351B070203D20307825303278003C4C494E4BED
S11351C03E2053543820746F202A7074722B2B00A5
S11351D07068795F7472616E736665722066616966
S11351E06C656420256420726573702030782530E6
S11351F03278007068795F7472616E7366657220CC
S11352006661696C656420256420692025642072C8
S113521065737020307825303278003C4C494E4B11
S11352203E205354313620746F202A7074722B2B15
S1135230003C4C494E4B3E205265706561742025FC
S113524064003C4C494E4B3E20526570656174319C
S113525036202564003C4C494E4B3E205265616427
S113526020534942206C656E202564003C4C494E15
S11352704B3E204B6579202578007068795F736513
S11352806E642062797465202564206661696C65AA
S1135290642025640000000029210000652200002C
S11352A0AD220000F52200003C4E564D3E205772C0
S11352B0697465204D656D6F7279004D656D6F720F
S11352C079207772697465206174206C6F636B65F3
S11352D064206D6F64650057726974696E67202578
S11352E064206279746573206174206164647265FA
S11352F073732030782578006170705F77726974F9
S1135300655F646174615F62797465732066616965
S11353106C6564202564003C4E564D3E20696E69E0
S113532074206E766D003C4E564D3E206465696E69
S11353306974206E766D003C4E564D3E2052656178
S113534064696E672064657669636520696E666F5B
S1135350003C4E564D3E20456E746572696E672062
S11353604E564D2070726F6772616D6D696E672065
S11353706D6F6465006170705F656E7465725F70F7
S1135380726F676D6F6465206661696C6564202562
S113539064003C4E564D3E204C656176696E672034
S11353A04E564D2070726F6772616D6D696E672025
S11353B06D6F6465006170705F6C656176655F70C8
S11353C0726F676D6F6465206661696C6564202522
S11353D064003C4E564D3E2044697361626C652006
S11353E05550444920696E74657266616365003C7A
S11353F04E564D3E20556E6C6F636B20616E64207B
S11354006572617365206120646576696365004433
S1135410657669636520696E2070726F6772616D6D
S113542065206D6F646520616E6420756E6C6F63BA
S11354306B6564006170705F756E6C6F636B206682
S113544061696C6564202564003C4E564D3E2045E0
S1135450726173652064657669636500456E746581
S1135460722070726F676D6F646520666972737401
S113547021006170705F636869705F657261736554
S1135480206661696C6564202564003C4E564D3E7F
S11354902057726974657320746F20656570726F2C
S11354A06D00656570726F6D2061646472657373FD
S11354B0206F766572666C6F772C2061646472204D
S11354C02568782C206C656E2025782E005772692B
S11354D074696E6720656570726F6D2070616765B1
S11354E02825642F256429206174203078257800CC
S11354F06170705F77726974655F6E766D20666146
S1135500696C65642025640057726974652065655B
S113551070726F6D20706167652025642066616913
S11355206C6564202564003C4E564D3E20577269DC
S113553074657320746F2066757365006675736592
S11355402061646472657373206F766572666C6F34
S1135550772C2061646472202568782E0061707055
S11355605F77726974655F646174615F62797465A1
S11355707320667573652061646472657373202596
S1135580303478206661696C65642025640061703C
S1135590705F77726974655F646174615F62797466
S11355A065732066757365206461746120253032EB
S11355B078206661696C6564202564006170705FA1
S11355C0657865637574655F6E766D5F636F6D6D29
S11355D0616E64206675736520636F6D6D616E64C2
S11355E0206661696C6564202564003C4E564D3E1E
S11355F02052656164206D656D6F7279004D656D33
S11356006F72792072656164206174206C6F636BC2
S11356106564206D6F64650052656164696E67201E
S113562025642062797465732061742061646472F6
S11356306573732030782578006170705F726561DE
S1135640645F646174615F62797465732066616923
S11356506C6564202564003C4E564D3E20526561C5
S1135660642066726F6D206E766D206172656100D4
S11356704E564D20617265612072656164206174CB
S1135680206C6F636B6564206D6F6465006E766D6E
S113569020617265612061646472657373206F7642
S11356A06572666C6F772C2061646472202568785B
S11356B02C206C656E2025782E003C4E564D3E20E5
S11356C05265736574006170705F656E7465725FB6
S11356D070726F676D6F64652C2066616C65642001
S11356E0726573756C74202564006E766D5F6765F2
S11356F0745F626C6F636B5F696E666F206661696D
S11357006C6564003C4E564D3E2057726974657357
S113571020746F20666C61736800666C6173682026
S113572061646472657373206F766572666C6F77FB
S11357302C2061646472202568782C206C656E20AE
S113574025782E0057726974696E6720666C6173E0
S11357506820706167652825642F25642920617499
S1135760203078257800577269746520666C6173FF
S1135770682070616765202564206661696C6564D2
S1135780202564005F6E766D5F77726974655F666D
S11357907573652066757365202825642920666104
S11357A0696C6564202564003C4E564D3E2057725A
S11357B0697465204175746F003C4E564D3E206EF1
S11357C0766D5F6765745F626C6F636B5F696E664D
S11357D06F202564206661696C65640055E53C5062
S11357E048593E204465696E6974003C5048593EEE
S11357F020536574204261756472617465003C5085
S113580048593E20736574204261756420256420E4
S11358106661696C6564202564003C5048593E20EB
S113582053656E643A0030782530327820003C505D
S113583048593E2053656E643A20466C757368502F
S11358406F7274206661696C6564202564003C5045
S113585048593E2053656E643A2053656E64446132
S11358607461206661696C6564202564003C50485D
S1135870593E2053656E643A2052656164446174F4
S113588061206D69736D61746368202530327828F6
S11358902530327829206C6F6361746564203D2063
S11358A02564003C5048593E2053656E643A2052AA
S11358B065616444617461206661696C6564202576
S11358C064003C5048593E2053656E643A20536549
S11358D06E64446174612028256429206661696CC2
S11358E06564202564003C5048593E2053656E642D
S11358F03A2052656164446174612028256429203A
S11359006661696C6564202564003C5048593E20FA
S1135910427265616B3A2053656E64696E672062FA
S11359207265616B003C5048593E2053656E64209B
S1135930427265616B3A207068795F73656E6420AA
S11359406661696C6564202564003C5048593E20BA
S1135950442D427265616B3A2053656E64696E67CB
S113596020646F75626C6520627265616B003C50E7
S113597048593E20442D427265616B3A2053657448
S1135980506F72745374617465206661696C6564E8
S1135990202564003C5048593E20442D42726561E4
S11359A06B3A207068795F73656E64206661696C18
S11359B06564202564003C5048593E20442D4272C1
S11359C065616B3A2072652D536574506F72745320
S11359D074617465206661696C6564202564003CAB
S11359E05048593E204F70656E696E6720706F7223
S11359F0742025732C20626175647261746520259E
S1135A0064007068795F73656E645F646F75626C5F
S1135A10655F627265616B206661696C65642025EF
S1135A2064003C5048593E20496E69743A204F70D6
S1135A30656E506F7274202573206661696C6564AD
S1135A4020003C5048593E20526563763A20526506
S1135A50616444617461206661696C6564202564D5
S1135A60003C5048593E20526563763A20526561A5
S1135A7064446174612074696D656F7574003C5091
S1135A8048593E20526563763A20526563656976CB
S1135A9065642825642F2564293A20003C50485920
S1135AA03E20526563763A20526563656976656483
S1135AB02825642F256429206661696C65643A2071
S1135AC0003C5048593E2052656376206F6E653A1B
S1135AD0207068795F7265636569766520666169BF
S1135AE06C65642C20476F7420256420627974658A
S1135AF073003C5048593E205472616E736665725F
S1135B003A2057726974652025642062797465733C
S1135B102C205265616420256420627974657300C9
S1135B203C5048593E205472616E736665723A2047
S1135B307068795F73656E64206661696C65642062
S1135B402564003C5048593E205472616E7366656A
S1135B50723A207068795F7265636569766520665C
S1135B6061696C65642C20476F7420256420627918
S1135B70746573003C5048593E20536962003C50A0
S1135B8048593E205369623A207068795F747261A3
S1135B906E73666572206661696C656420256400B5
S1135BA02E2E2F68616C2F7372632F68616C5F698E
S1135BB06F2E63002E2E2F68616C2F7372632F6813
S1135BC0616C5F75736172745F6173796E632E6368
S1135BD0002E2E2F68616C2F7574696C732F73728D
S1135BE0632F7574696C735F72696E67627566663C
S1135BF065722E63002E2E2F68706C2F736572638E
S1135C006F6D2F68706C5F736572636F6D2E6300C8
S1135C10683A0000383A00004A3A00008C39000023
S1135C204A3A00002E3A00004A3A00008C3900003B
S1135C30383A0000383A00002E3A00008C3900004F
S1135C40943900009439000094390000503A00005F
S1135C50383A0000383A00000C3A0000F03A0000EC
S1135C600C3A00002E3A00000C3A0000F03A000012
S1135C70383A0000383A00002E3A0000F03A0000AA
S1135C80943900009439000094390000FA3A000075
S1135C90983C0000E83B0000E83B0000E63B0000C5
S1135CA08A3C00008A3C0000803C0000E63B000087
S1135CB08A3C0000803C00008A3C0000E63B000077
S1135CC0903C0000903C0000903C0000203D00000F
S1135CD0F8B5C046F8BC08BC9E467047DD0000001D
S1135CE0F8B5C046F8BC08BC9E467047B500000035
