:10000000F8250020151B0000111B0000111B00002B
:1000100000000000000000000000000000000000E0
:10002000000000000000000000000000111B0000A4
:100030000000000000000000111B0000111B000068
:10004000111B0000111B0000111B0000111B000000
:10005000111B0000111B0000111B0000111B0000F0
:10006000111B0000111B0000111B0000111B0000E0
:10007000D1260000111B0000111B0000111B000005
:10008000111B0000111B0000111B0000111B0000C0
:10009000111B0000111B0000111B0000111B0000B0
:1000A000111B0000111B0000111B0000111B0000A0
:1000B0000000000010B5064C2378002B07D1054B3B
:1000C000002B02D0044800E000BF0123237010BDC4
:1000D0001005002000000000A0520000084B10B5E1
:1000E000002B03D00749084800E000BF0748036819
:1000F000002B00D110BD064B002BFBD09847F9E731
:100100000000000014050020A0520000A0520000D2
:100110000000000010B5014B984710BD191C0000ED
:10012000F0B587B003216A46154B06009847011EBB
:1001300022D16B46134C5B8802AA3000A047050011
:10014000041E08D0022518E00F4A02ABE15CA35C54
:10015000994207D101346B465B889C42F4DB28004E
:1001600007B0F0BD1219A1B201233000074FB84704
:100170000028EFD0032500E001256D42EFE7C046DF
:10018000151600000D1700000000002045170000A4
:10019000A022D20003008218002010B51C88002C79
:1001A00007D19C68002C04D0DC68002C01D0198099
:1001B000013014339342F1D110BD0000F7B5174B55
:1001C0006A46002106009847002822D16B46144C4D
:1001D000198820000909134B98473000124B9847A3
:1001E000051E19D1114B9C4201D12800FEBDE268C9
:1001F000002A01D11434F5E72188636809015918F0
:1002000089B2236930000A4FB8470028F2D005258B
:1002100000E002256D42E8E70425FBE71516000023
:100220000C000020910100008D1400000C0500203E
:100230003D16000070B51C481C4B9847021E2FD07D
:10024000E121002049021A4B9847051E23D0194B83
:100250009847042400281FD12800174B98470028EE
:1002600012D12800154B98470624002814D12800E5
:10027000134B9847041E11D1124B280098472800B1
:10028000114B9847200070BD2800104B984700285C
:10029000E7D0052400E003246442EDE70924FBE7EE
:1002A00002246442EEE7C0462E330000D102000073
:1002B00081130000CD130000F113000021010000A4
:1002C000BD01000021140000AD130000591400000E
:1002D000004870473833000010B5130004000329AC
:1002E00012D80800616802F033FA02090B0D0431DC
:1002F00018000622064B9847002010BD1C31F7E776
:100300001631F5E71031F3E702204042F5E7C04629
:100310000D33000010B580B2014B984710BDC046A8
:10032000491C0000704770477047000070B50868AE
:10033000214B0D009847214B21499847011C8F20E4
:10034000204BC0059847204B9847204C0100204B7C
:100350002000984728790538032825D802F0F8F9B5
:1003600020021C1E062120001A4B9847697900299B
:1003700002D002291BD101392000174B9847A979D7
:10038000012904D000290DD0022912D1002120001A
:10039000124B9847002070BD0721E4E70021E2E7F7
:1003A0000521E0E70221F2E706204042F3E70720BB
:1003B000FBE70820F9E7C04639300000812A000039
:1003C000BD37863DC12C0000512A0000A805002041
:1003D000911F000021200000F11F0000C11F00003C
:1003E000F8B50E00124C134D134A01212000A84706
:1003F000124A00212000A847114A02212000A847E4
:10040000104F114B390020009847104B200098479F
:100410000F4D104B31002B603B6828006B600E4B7A
:100420009847002802D020000C4B98472800F8BDC0
:10043000A8050020251F0000290300002703000055
:100440002503000054050020FD1E0000A51E00002D
:1004500058050020A5A500002D030000D11E0000B6
:1004600010B5002808D0064B02689A4204D105480E
:10047000054B9847002010BD01204042FBE7C046D5
:10048000A5A50000A80500205120000010B50028F7
:1004900009D0064B04689C4205D192B24068044BD7
:1004A0009847002010BD01204042FBE7A5A50000B1
:1004B000691C000010B592B24068014B984710BD0E
:1004C000991C000010B5002802D00248024B984742
:1004D00010BDC046A8050020D11E000010B5064B77
:1004E00014009847031E04D0044B054A58601A6054
:1004F0009C60180010BDC0463D0E00006005002045
:10050000B4B4000010B5002806D0044B02689A422B
:1005100002D14068024B984710BDC046B4B40000F9
:10052000750C000037B5041E10D0094B026800247A
:100530009A420BD16B46DD1D2A000B214068054B0A
:100540009847A04202D12C782407E40F20003EBD3A
:10055000B4B40000950C0000F7B505000C000028AD
:100560001CD00F4B02689A4218D101266B46DF1D42
:100570003A000B2168680B4B9847002802D13B7862
:10058000334208D03000084B013C9847002CEDDC8A
:100590000220404201E0002CFADDFEBD0120F8E718
:1005A000B4B40000950C00001503000010B500283D
:1005B0000CD0084B02689A4208D10C2203214068F3
:1005C000054B9847002803D0022000E0012040425C
:1005D00010BDC046B4B40000350D000010B50A00CF
:1005E00000280ED0084B016899420AD1074B002A17
:1005F00000D05922082140689847002803D00220E3
:1006000000E00120404210BDB4B40000350D0000F0
:10061000F8B504000F00002812D00C4B02689A4273
:100620000ED101210A4DA847061E0CD13800094BF6
:10063000984731002000A847002803D0032000E09D
:1006400001204042F8BD0220FBE7C046B4B40000E0
:10065000DD0500001503000037B5041E24D0174B3C
:1006600002689A4220D1164A00214068154B9847EB
:1006700000281CD16B46DD1D2A0007216068124B43
:100680009847002815D12B781B0712D5012120008F
:100690000E4B984700280ED1642120000C4B984740
:1006A000002803D0052000E0012040423EBD02208A
:1006B000FBE70320F9E70420F7E7C046B4B40000E5
:1006C000B751000011130000950C00001106000046
:1006D0005905000073B5041E2BD01C4B02689A42CA
:1006E00027D11B4DA847011E21D11A4A60681A4B19
:1006F0009847002820D16B46DE1D32000721606834
:10070000164B9847002819D13378DB0616D50121FE
:100710002000134B9847002812D164212000114B70
:10072000984700280ED12000A84700280CD00020B0
:1007300076BD01204042FBE70220FBE70320F9E7FA
:100740000420F7E70520F5E70620F3E7B4B400003E
:1007500025050000C051000011130000950C000099
:10076000110600005905000010B5041E0FD00A4BF9
:1007700002689A420BD10121084B9847002809D101
:100780002000074B9847002803D0032000E00120F9
:10079000404210BD0220FBE7B4B400001106000087
:1007A000AD050000F7B505000C00002824D0134B60
:1007B00002689A4220D103276B46DE1DAB683200E7
:1007C0005B68686899890E4B023189B298470028A6
:1007D00002D0032040420EE0042233781342F8D1C5
:1007E0003B4206D00120074B013C9847002CE3DC3C
:1007F000EFE7002CEDDDFEBD0120EBE7B4B4000017
:10080000AD0E00001503000010B50A0000280AD044
:10081000064B0168994206D1836840685B689989F4
:10082000034B984710BD01204042FBE7B4B40000E1
:100830005D0F000070B5041E19D00F4B02689A427C
:1008400015D1FA210D4D8900A847002802D00220B9
:1008500040420BE005212000094B9847002808D1B1
:10086000FA2120008900A8470028F0D170BD01209E
:10087000EEE70320ECE7C046B4B40000A507000093
:100880000908000070B5040015001E0000282DD0D6
:100890001B4B02689A4229D1002D27D028006B1CDF
:1008A0000AD0012E22DD022E07D12A006068154BE6
:1008B000984700281CD1002070BD802E1ADC60688B
:1008C000114B9847002817D17110013989B260681F
:1008D0000E4B9847002811D13200290060680C4B5C
:1008E00098470028E7D006204042E5E70120FBE7D3
:1008F0000220F9E70320F7E70420F5E70520F3E7F6
:10090000B4B40000050F0000F5100000AD120000A7
:10091000A110000070B5040015001E0000282ED0A4
:100920001C4B02689A422AD1002D28D028006B1C4B
:100930000AD0002E23DD012E07D12A006068164B55
:10094000984700281DD1002070BD80235B009E4287
:1009500019DC6068114B9847002816D1711EC9B286
:1009600060680F4B9847002811D132002900606859
:100970000C4B98470028E6D006204042E4E70120CF
:10098000FBE70220F9E70320F7E70420F5E705205D
:10099000F3E7C046B4B40000AD0E0000F51000004F
:1009A000711200005110000070B5012405001C40B8
:1009B000002A0CD01000561C06D0002B07DD2800A2
:1009C000002C02D1034CA04770BD034CFBE7012073
:1009D0004042F9E7850800001509000070B50400E1
:1009E0008AB0002826D0184B02689A4222D11022E1
:1009F00006A94068154B9847051E20D12000144BCE
:100A00009847002818D0A36802AA5B682000D989FB
:100A1000104E0E23B047002813D1A36801AA5B68CB
:100A2000200059890123013189B2B047002803D041
:100A3000042500E001256D4228000AB070BD0225A2
:100A4000F9E70325F7E7C046B4B40000ED12000053
:100A500025050000A909000070B5040015001E005E
:100A6000002835D01D4B02689A4231D1002D2FD07D
:100A700028006B1C11D0012E2ADD022E0ED16B78BE
:100A80002A781B02D21892B26068154B984700284A
:100A900002D00320404200E0002070BD80239B0074
:100AA0009E42F6DC60680F4B9847002812D1711007
:100AB000013989B260680C4B984700280CD132008C
:100AC00029006068094B98470028E5D00620E1E737
:100AD0000120DFE70420DDE70520DBE7B4B40000F8
:100AE000D50F0000F5100000AD120000D911000074
:100AF000F8B504000F0015001E00002830D01C4B74
:100B000002689A422CD1002D2AD028006B1C29D0D3
:100B1000002E25DD012E0DD12A786068154B9847EF
:100B2000002820D139006068134B9847002807D06F
:100B3000042016E080235B009E42F3DD032010E0DA
:100B4000711EC9B260680D4B984700280DD1320064
:100B5000290060680A4B9847002803D0062000E06F
:100B600001204042F8BD0220FBE70520F9E7C0461E
:100B7000B4B400005D0F0000F51000007112000019
:100B80004D11000070B5040004A80578002A0BD0B0
:100B90001000561C07D0002B06DD2000044C002D51
:100BA00000D1044CA04770BD01204042FBE7C04685
:100BB000590A0000F10A0000F0B587B003930CABAE
:100BC0001B78040004930DAB1B780F000292059371
:100BD00000282CD01D4B02689A4228D1FA211C4DC6
:100BE0008900A847002826D104212000194EB047CB
:100BF000002822D1FA2120008900A84700281ED110
:100C0000059B39000093029A039B2000124FB847BE
:100C1000002816D104992000B047002813D1FA21EA
:100C200020008900A847002803D0072000E0012009
:100C3000404207B0F0BD0220FAE70320F8E70420A5
:100C4000F6E70520F4E70620F2E7C046B4B400005A
:100C5000A507000009080000850B000037B5012436
:100C600025009D4301950094014CA0473EBDC04620
:100C7000B90B000010B5002806D0044B02689A4258
:100C800002D14068024B984710BDC046C3C3000064
:100C9000951700007FB5552303AC2370463B0B40EE
:100CA00080214942194315006170002816D00E4B6F
:100CB00002689A4212D1002D10D001230B26009316
:100CC0006E442100330002224068084CA0470128EE
:100CD00007D1002033782B7004B070BD0120404252
:100CE000FAE70220FBE7C046C3C30000891A0000F0
:100CF00073B5041E18D00D4B02689A4214D16B468E
:100D0000DD1D01212A000A4EB047011E02D002203B
:100D1000404276BD2A002000B0470028F7D12B784A
:100D2000002BF6D10320F3E70120F1E7C3C3000055
:100D3000950C000013B5552401AB1C70463C0C40CB
:100D400040214942214359709A7000280CD0084A2A
:100D50000168914208D1190003224068054B984769
:100D6000002803D0022000E00120404216BDC0460A
:100D7000C3C30000A5180000F7B56B46DF1D0023B4
:100D800004000E003B70984243D0254B02689A4203
:100D90003FD1E12140684902224B9847002802D008
:100DA0000420404229E00822032120001E4DA847CC
:100DB000002830D1802202212000A84700282CD111
:100DC0001A4B9E4208DD1A4B9E4217DD194B012536
:100DD0009E4202DD0220E4E703253A0009212000BB
:100DE000154B984700280BD13B78AB4208D1310016
:100DF00060680C4B98470028D2D1FEBD0225ECE775
:100E00002A0009212000084B98470028EFD0032032
:100E1000C7E70120C5E70520C3E70620C1E7C046B4
:100E2000C3C30000B9170000350D0000E86E0300D1
:100E3000D0DD0600A0BB0D00950C0000F7B50191B8
:100E4000E121134B49029847061E19D00427114C83
:100E5000114B6060236001992000104B9847051EDC
:100E600003D030000E4B984704E020000D4B98470C
:100E7000051EF6D1013F002F03D0002DEBD120003D
:100E8000FEBD2000002DFBD0074B98473800F7E748
:100E9000C91900006C050020C3C30000790D0000D3
:100EA00055190000F10C0000750C00007FB515000D
:100EB0005523042203ACA170090A23706270E1700B
:100EC000002815D00D4B0168994211D1002D0FD08B
:100ED00001230B2600936E44210033004068084C28
:100EE000A047012807D1002033782B7004B070BDD3
:100EF00001204042FAE70220FBE7C046C3C30000DE
:100F0000891A00007FB5552303AC2370A170503BB4
:100F1000090A15006370E170002816D00D4B0268B5
:100F20009A4212D1022302AE009321003300042220
:100F30004068094CA04702280AD100207278337813
:100F4000120213432B8004B070BD01204042FAE727
:100F50000220FBE7C3C30000891A00005523F0B547
:100F60000B2485B0050003A80370113B437081700A
:100F700002AE090A6C44BB33C17032702370002D7D
:100F800021D0124B2A689A421DD1012304220093DA
:100F90000100230068680E4FB8470200012802D004
:100FA000022040420DE02378402BF9D1009023002D
:100FB00031006868B8470128F2D123780020402B1F
:100FC000EED105B0F0BD0120EBE7C046C3C3000081
:100FD000891A00005523F0B50F2487B0050005A835
:100FE00004AE0370103B437081703270090A120A1C
:100FF0006C44BA33C17072702370002D21D0124B33
:101000002A689A421DD10123010000930422230083
:1010100068680E4FB847012802D0022040420EE017
:101020002378402BF9D10090230002223100686818
:10103000B8470128F1D123780020402BEDD107B02B
:10104000F0BD0120EAE7C046C3C30000891A0000D2
:101050007FB504000E0015000D49022203A80D4BB8
:101060009847002C0FD00C4B22689A420BD1009568
:1010700060683300022203A9084CA047854205D1CD
:10108000002004B070BD01204042FAE70220FBE7D7
:10109000C95100000D330000C3C30000891A0000CD
:1010A0007FB5150002220E000E490400891803A81E
:1010B0000D4B9847002C0FD00C4B22689A420BD155
:1010C000009560683300022203A9094CA0478542BD
:1010D00005D1002004B070BD01204042FAE7022093
:1010E000FBE7C046C95100000D330000C3C3000038
:1010F000891A0000552330B50B2585B003AC237049
:1011000014336370A1706D44090A9633E1702B703B
:10111000002813D00B4B02689A420FD10123009391
:1011200021002B0004224068074CA047012803D16E
:101130002B780020402B03D0022000E00120404209
:1011400005B030BDC3C30000891A00005523F0B5B7
:101150000E0089B007A90B700F334B703378051E52
:1011600004928B7032D01A4B02689A422ED10B2413
:1011700004ABE41801230093032223004068154FB9
:10118000B847012802D00220404209E02378402BD2
:10119000F9D1741C0590049AA31B9A4202DC00202A
:1011A00009B0F0BD0B2704ABFF18059B0397009314
:1011B00001223B0021006868064FB8470128E2D1B0
:1011C000039B01341B78402BE5D0DCE70120DBE7F3
:1011D000C3C30000891A00005523F0B50C000B258D
:1011E00089B007A90B7010334B70237806008B7001
:1011F00063780492CB7004ABED18FF232B700028AA
:101200002DD0194B02689A4229D101230093042260
:101210002B004068154FB847012823D12B78402B6D
:1012200020D1A51C0590049A2B1B9A4202DC0020B9
:1012300009B0F0BD0B2704ABFF18059B0397009383
:1012400002223B0029007068084FB847012804D1EA
:10125000039B02351B78402BE5D0032000E00120E2
:101260004042E5E70220FBE7C3C30000891A000003
:1012700007B5552201AB1A704B325A70997000288D
:101280000CD0084A0168914208D119000322406835
:10129000054B9847002803D0022000E0012040427F
:1012A0000EBDC046C3C30000A518000007B55522F7
:1012B00001AB1A7099704C32090A5A70D970002823
:1012C0000CD0084A0168914208D1190004224068F4
:1012D000054B9847002803D0022000E0012040423F
:1012E0000EBDC046C3C30000A518000010B50028FD
:1012F00007D0054B04689C4203D14068034B9847D4
:1013000010BD01204042FBE7C3C30000B91A000032
:10131000F0B585B001925522082703AB1A70753AD3
:101320000A4306005A708F4000281ED0114A0168F7
:1013300091421AD11900022240680F4B9847FFB220
:101340000400051E0CD0022410E0019A7B1BD31868
:10135000013B19787068094B9847002808D101357E
:10136000BD42F2DB200005B0F0BD01246442F9E784
:101370000324FBE7C3C30000A5180000251A0000E2
:1013800010B5074B14009847031E06D0054B064ABC
:10139000DC601A60002298601A71180010BDC04607
:1013A000DD04000074050020D2D2000010B5002832
:1013B00006D0044B02689A4202D18068024B9847DB
:1013C00010BDC046D2D200000505000010B50028AF
:1013D00007D0054B02689A4203D18068034B9847B7
:1013E00010BD01204042FBE7D2D20000DD09000021
:1013F00010B5041E0BD0084B02689A4207D18068D2
:10140000064B9847002805D10123237110BD012008
:101410004042FBE70220FBE7D2D20000D5060000E5
:1014200010B5041E0ED00A4B02689A420AD1037905
:101430000020834205D0A068064B9847002804D1BD
:10144000207110BD01204042FBE70220FBE7C046AF
:10145000D2D200006907000010B5041E0CD0094B61
:1014600002689A4208D18068074B9847002806D046
:1014700001230020237110BD01204042FBE7022020
:10148000FBE7C046D2D200005906000010B5002884
:101490000DD0094B02689A4209D10379002B09D07B
:1014A0008068064B9847002803D0032000E0012005
:1014B000404210BD0220FBE7D2D2000035080000F8
:1014C000F0B585B01F006B469E1DC36832805B6817
:1014D00002689D89204B04009A4234D10379002B85
:1014E00003D10220404205B0F0BD0A8833889A42F9
:1014F00001D9D31833804B8830889B18984224DA5E
:10150000FA21A0688900154B98470028E9D12900E5
:101510000831320089B20223A068114EB04700287A
:1015200015D10E2206356A44A9B20223A06817809D
:10153000B04700280DD10721A0680A4B9847002822
:10154000D1D00620CEE70120CCE70320CAE7042053
:10155000C8E70520C6E7C046D2D20000A5070000B4
:10156000F10A000009080000F0B585B0061E0291DE
:10157000039201931CD0104B02689A4218D10024A8
:10158000019B1D1B80235B009D4200DD1D00039B12
:10159000B0681A19029B094F191989B22B00B84774
:1015A000002803D1019B6419A342E9DC05B0F0BD1A
:1015B00001204042FAE7C046D2D2000015090000DF
:1015C00070B50D0011001A00002817D00F4B0468E9
:1015D0009C4213D1002A11D00379002B11D02C8802
:1015E0008C4201D9611889B2049BCE186B881B19F3
:1015F0009E4208DC049B064CA04770BD012040427F
:10160000FBE70220FBE70320F9E7C046D2D2000047
:101610006915000010B5002808D0064B04689C42EC
:1016200004D1C9B2C068044B984710BD01204042A4
:10163000FBE7C046D2D20000D9020000F0B589B065
:101640000500019103921E0000284BD02B4B02682D
:101650009A4247D1039B002B44D00379002B44D0FE
:1016600006AA0021264B9847041E40D106AA06ABC5
:1016700051881B88019A934202DD9A1892B2019216
:10168000019A5B1892199A4233DC06AB9F881D4B76
:10169000F019013839009847039B05900493002303
:1016A00002960393039B059A934202DB200009B044
:1016B000F0BD029A3B00974200DD1300049A0199A5
:1016C000A868114EB047029BDB1B0293019BFB18DD
:1016D0009BB20193049BDB19049300280BD1039B5D
:1016E0000133DEE701246442E0E70224FBE7032440
:1016F000F9E70424F7E70624F5E7C046D2D2000054
:1017000015160000792800005D0C0000F0B585B0CA
:101710000D0016001F0002AA0321084B0400984781
:10172000002808D12000009733002A0002A9044CA9
:10173000A04705B0F0BD03204042FAE715160000AF
:10174000C1150000F0B587B001910292039304AA7D
:1017500003210E4B060098470400051E0ED00324FB
:1017600064420EE0019A029B52195B5D92B204A999
:101770003000074FB847002806D10135039B9D4232
:10178000F0DB200007B0F0BD0224E9E715160000E9
:10179000C114000010B5002808D0054B02689A4219
:1017A00004D14068002801D0024B984710BDC046C4
:1017B000E1E10000C5040000F7B504000F000028B7
:1017C00017D00E4B02689A4213D106000836082241
:1017D000310068460A4DA84760686946094B009782
:1017E0009847041E08D1082269463000A847200007
:1017F000FEBD01246442FAE70224FBE7E1E10000B8
:101800000D3300002D030000F0B585B005000F007A
:101810000192002833D01E4B02689A422FD14068B3
:101820001C4B98470024019BA34202DC002005B01A
:10183000F0BD02ABD91D3B5D01220B706868164BF1
:101840009847061E19D104000120144B984702AB9B
:10185000D91D01226868124B98473618012E10D006
:101860000134652CF0D103204042E0E728690028CC
:1018700001D00A4B98470134D5E70220F4E7012054
:10188000F2E702AB3A5DDB799A42EFD00420EBE756
:10189000E1E10000610400008D0400001503000078
:1018A000B5040000F7B505000191140000283FD0F1
:1018B000214B02689A423BD1102200211F4B204845
:1018C0009847204B686898472200019968681E4B2A
:1018D0009847061E20D1652701201C4B98472200FF
:1018E000174968681A4B98473618B44206D0013F2A
:1018F000002FF1D104267642A64204D10023104ADB
:10190000A3420BDB26002869002801D00F4B984723
:10191000A6420FD100260DE00326ECE70199C85C32
:10192000D15C884201D10133EAE705267642EAE735
:10193000012676423000FEBDE1E100001F330000C9
:1019400084050020610400008D04000015030000E0
:10195000B50400000023F0B585B001AD04002B7084
:101960006B70984221D0154A016891421DD1962290
:10197000022652000292253A02A9FF3A4068104F0F
:101980000A714B718E71B847002812D132002900BC
:1019900020000C4B984700280DD1210060680831C9
:1019A000B847002803D0052000E00120404205B0E0
:1019B000F0BD0220FAE70320F8E7C046E1E10000AD
:1019C0002D030000A518000073B508236D462B7188
:1019D000063B00916B71AB710E000D4B6946984749
:1019E000041E13D00B4C0C4B606023600123236159
:1019F00023000096083306CD06C32000074B984706
:101A0000002803D02000064B98470024200076BD14
:101A1000E103000094050020E1E1000055190000F9
:101A20009517000007B56B46D971073319000122DD
:101A3000014B98470EBDC04609180000F7B50600D7
:101A400001911700002815D00C4B02689A4211D161
:101A50000B2500240A4B3A00019970689847094BFE
:101A6000241801209847A74202D0013D002DF1D152
:101A70002000FEBD01246442FAE7C046E1E1000017
:101A8000B50400001503000070B51D00084B0400EC
:101A9000984700280AD1074B049A2900200098474C
:101AA000049B834201D00320404270BD0220FBE72B
:101AB000A51800003D1A00007FB505000E001400B7
:101AC0000F49022203A80F4B9847002D12D00E4B4E
:101AD0002A689A420ED1102C00DD102428000094B0
:101AE0003300022203A9094DA847A04205D10020D6
:101AF00004B070BD01204042FAE70320FBE7C04676
:101B0000CD5100000D330000E1E10000891A000012
:101B1000FEE700001148124970B5884204D0002346
:101B2000104CCA18A24213D300210F4B0F4A934204
:101B300012D3FF210E4B0F4A8B43936080230E4A32
:101B400051680B4353600D4B98470D4B9847FEE788
:101B5000C55804331560E4E702C3E8E7A05200006B
:101B6000000000201005002010050020F8050020CE
:101B70000000000000ED00E000400041C532000020
:101B80003D270000064B40211A00D8321160432245
:101B9000C4331A601023034AD1690B43D3617047E1
:101BA00000180040000400400D4B0122180030B521
:101BB000C83001780F2491431143017019000320AC
:101BC000B4310D78C933A543284308701878904381
:101BD00002431A700B781C40302323430B7030BD36
:101BE0000028004013B5064B98470023054A009390
:101BF00005492033054C0648A047064B984713BDBE
:101C0000851B00002C05002000100042191E00005A
:101C1000A8050020A91B000010B5024B9847024BF5
:101C2000984710BDB5210000E51B0000EFF31083BD
:101C3000036072B6BFF35F8F7047BFF35F8F0368B7
:101C400083F3108870470000044B10B51C68044BE8
:101C50009847044B01002000984710BD4C05002018
:101C600091210000AD21000070B504000D001600A8
:101C7000002803D00800431E9841C0B23422044912
:101C8000044B98473200290023682000984770BD14
:101C9000CF5100007D20000070B504000D0016003B
:101CA000002803D00800431E9841C0B23D220449D9
:101CB000044B98473200290063682000984770BDA4
:101CC000CF5100007D2000000023083810B50363C9
:101CD000436A002B00D0984710BD0023083810B588
:101CE0000363C36A002B00D0984710BD10B50400F1
:101CF000044B2C309847236A083C002B01D020006D
:101D0000984710BD09210000F8B504000E00150029
:101D1000002804D0081E02D01000431E984101275D
:101D20003C223840FF320C490C4B98472200A31D3F
:101D30004C32D88F118888420AD1A66420001580C1
:101D400000220830DA872763054B98472800F8BD42
:101D50001C204042FBE7C046E35100007D2000000C
:101D600069260000010010B50400838F443000880C
:101D7000083998420AD0896C581CA087C95C200099
:101D8000044B98472000044B984710BD2000034B9C
:101D9000FAE7C046612600006926000071260000AF
:101DA000F0B5050085B00E001400002804D0081E10
:101DB00002D01000431E9841AC2211495200114B31
:101DC0009847343503A8104B9847104B2800984784
:101DD0000F4B070003A8984733193400F7190193F4
:101DE000A01B80B2BC4202D0019B9C4201D105B035
:101DF000F0BD21002800074B98470134F0E7C046AA
:101E0000E35100007D2000002D1C0000492100004E
:101E10003B1C0000C5200000F8B504000D001600B2
:101E20001F00002806D0081E04D0101E02D0180083
:101E3000431E98413A221149114B984720003A001D
:101E4000310034300F4B9847002813D1200029006F
:101E500008300D4B984700280BD10C4B63600C4B9E
:101E600023600C4BA3600C4BE3600C4B23610C4BC9
:101E70006361F8BD0D204042FBE7C046E35100001E
:101E80007D200000852000008D250000A11D0000A0
:101E9000091D0000651D0000ED1C0000C91C0000AC
:101EA000DB1C000010B50400431E98416122054967
:101EB000C0B2054B98472000044B083098470020DB
:101EC00010BDC046E35100007D200000F925000050
:101ED00010B50400431E98416C220549C0B2054B61
:101EE00098472000044B08309847002010BDC0469A
:101EF000E35100007D2000001126000070B50400B1
:101F00000D00002803D00800431E9841C0B277227C
:101F10000249034B98472C60002070BDE35100003C
:101F20007D20000070B50500431E98410E0014008E
:101F3000C0B283221349144B9847012E11D0002EB2
:101F400004D0022E15D00D20404209E0AC622800DA
:101F5000621E94410121E2B208300C4B98470020E8
:101F600070BD6C622800621E94410830E2B202210A
:101F7000F3E7EC622800621E94410830E2B20321CC
:101F8000EBE7C046E35100007D2000007926000009
:101F900070B50400431E98410D00AA22C0B2054945
:101FA000054B9847200029000830044B9847002033
:101FB00070BDC046E35100007D20000021260000D6
:101FC00070B50400431E98410D00CB22C0B20549F4
:101FD000054B9847200029000830044B9847002003
:101FE00070BDC046E35100007D2000003126000096
:101FF00070B50400431E98410D00D622C0B20549B9
:10200000054B9847200029000830044B98470020D2
:1020100070BDC046E35100007D2000004126000055
:1020200070B50400431E98410D00E122C0B205497D
:10203000054B9847200029000830044B98470020A2
:1020400070BDC046E35100007D2000005126000015
:1020500010B522220400431E9841FF320449C0B249
:10206000044B98472000044B3430984710BDC046BD
:10207000E35100007D2000006D210000002800D108
:1020800000BE704770B505000E001400002804D093
:10209000081E02D01000431E9841084B2822084910
:1020A00098472000631E184004D16B60A860E86068
:1020B0002E6070BD0D204042FBE7C0467D20000031
:1020C0000052000070B504000D00002803D0080085
:1020D000431E9841C0B24022094B0A499847A36861
:1020E000E2689A4209D00020626813402268D35CFB
:1020F0002B70A3680133A36070BD0A204042FBE748
:102100007D2000000052000070B50400431E98417D
:102110000D0051220A490B4BC0B29847E268636830
:1021200013402268D554E368A1686268591A914245
:1021300001D99A1AA26001330020E36070BDC04645
:10214000005200007D20000010B50400431E98419D
:102150006722C0B20349044B9847E068A368C01ADD
:1021600010BDC046005200007D20000010B50400E4
:10217000431E98417122C0B20349044B9847E3685B
:102180000020A36010BDC046005200007D2000006A
:102190000300A020584310B5034B02300321984799
:1021A0006423584310BDC046652700000139FDD89F
:1021B0007047000010B5094B02205A685A60084B5E
:1021C0009847084B9847084B9847084B9847084B47
:1021D0009847FF20074B984710BDC046004000417C
:1021E0007F2200002D22000045220000192200005D
:1021F0007D220000F9210000C30706D5034A044BE5
:102200001A62044A59681142FCD170470601010064
:1022100000180040FD0700000822034B9A71043AA1
:102220005A71033A1A71704700040040F821044BB8
:102230004901DA690A40DA6101221A617047C04631
:10224000001000408E220B4B10B51A750A4A02206E
:10225000110014780442FCD11022D8681042FCD03E
:1022600080201A7D02431A750E230A781A42FCD187
:1022700010BDC046000C0040380C00407047802361
:102280000321DB059A780A40904209D0FF229A7117
:102290009A7808408A43104398709A79002AFCD0B3
:1022A00070470000002805DB1F2318401E3B8340B9
:1022B000014A13607047C04600E100E0002809DBD6
:1022C0001F2318401E3B8340034AD367BFF34F8F41
:1022D000BFF36F8F7047C04604E100E0002807DBC2
:1022E0001F23C02218401E3B8340024952008B50DE
:1022F0007047C04600E100E0C3691942FCD1704755
:1023000010B504000321034B984720688007C00FD5
:1023100010BDC046F92200000222036810B59343A5
:10232000490019430160024B0321984710BDC04684
:10233000F9220000022210B50368032193430360D1
:10234000014B984710BDC046F922000073B50C4BF5
:1023500004000D00984706000A4B2000984701A88A
:10236000094B9847ADB202212000084B9847A58140
:1023700001A8074B984731002000064B984773BDD2
:1023800001230000352300002D1C0000F92200006D
:102390003B1C000019230000F7B5114B04000D0091
:1023A0009847104B07002000984701A80E4B98470C
:1023B0000E4E20000221B04740226368072193435C
:1023C0006A1E9541AD011D4365602000B04701A81C
:1023D000074B984739002000064B9847F7BDC04689
:1023E00001230000352300002D1C0000F92200000D
:1023F0003B1C000019230000F7B5124B04000D0030
:102400009847114B070020009847104B01A89847A8
:10241000022120000E4EB047072163680D408B4318
:102420001D4320006560B04701A80A4B9847002F64
:1024300006D0022322680321134323602000B04703
:10244000F7BDC04601230000352300002D1C00000D
:10245000F92200003B1C0000F7B5184B0D000400EA
:102460009847174B07002000984701A8154B98473D
:1024700002212000144EB047022D1AD0802322687A
:102480005B041343236020000721B0470F4A6368B1
:10249000072113406A1E95416D031D4365602000AE
:1024A000B04701A80A4B984739002000094B9847CC
:1024B000F7BD2368084A1340E4E7C0460123000043
:1024C000352300002D1C0000F9220000FFDFFFFF74
:1024D0003B1C000019230000FFFFFFFE1C4B70B5E2
:1024E0000400984203D083031B0E042B04D0194A26
:1024F00019490020194B9847E369194DDB0711D49E
:10250000022603212000A8472368334205D020007B
:10251000144B984731002000A8470523032123606E
:102520002000A84720000121A8470F4B200023606E
:102530000321A847C0239B02636020000721A8470E
:1025400000200A4BA381A0733034207070BDC046B8
:102550000004004361020000245200007D200000BE
:10256000F922000035230000040010408AFDFFFF1F
:10257000054A0523904203D0BE231B06C018830AD8
:102580000833D8B27047C0460004004370B5060057
:10259000431E98410C00C0B2C4220E490E4B98470E
:1025A00020000E4B9847051E12D10D4BB4619C4282
:1025B00001D10C4B1E600C4B2000984744B2200008
:1025C0000A4B984720000A4B98472000094B984730
:1025D000280070BD245200007D200000DD24000092
:1025E000001000425005002071250000BD220000AF
:1025F000DD220000A5220000022310B5806903211E
:10260000026813430360014B984710BDF922000094
:1026100010B58069014B984710BDC04635230000B6
:1026200010B58069014B984710BDC0464D2300008E
:1026300010B58069014B984710BDC0465924000071
:1026400010B58069014B984710BDC0469923000022
:1026500010B58069014B984710BDC046F9230000B2
:10266000836989B219857047012283699A75704719
:10267000022283699A75704770B50400431E984121
:102680000E00104B1500C0B20F4A104998470222A5
:102690003300934309D1A3690121002D02D119759B
:1026A0001A7570BD99759A75FBE7012E04D1042245
:1026B000A369002DF7D1F3E7032EF2D1A36980229D
:1026C000F7E7C0467D2000002102000024520000F0
:1026D000194B10B5186801238469227E1A4206D06E
:1026E000A27D1A4203D023750368984710BD237E4C
:1026F00001229B0707D5A37DD340134203D00223B9
:1027000023758368F1E7237E5B070BD53723628B44
:102710001A4202D008336383E8E7218D4368C9B2C7
:102720009847E3E7237EDB09E0D080232376C36864
:102730009847638B9BB2EEE750050020024B10B523
:102740009847024B9847FEE715010000350200004C
:1027500002B4714649084900095C49008E4402BC34
:102760007047C046002243088B4274D303098B4252
:102770005FD3030A8B4244D3030B8B4228D3030C51
:102780008B420DD3FF22090212BA030C8B4202D3F3
:102790001212090265D0030B8B4219D300E0090A1B
:1027A000C30B8B4201D3CB03C01A5241830B8B4224
:1027B00001D38B03C01A5241430B8B4201D34B030D
:1027C000C01A5241030B8B4201D30B03C01A524172
:1027D000C30A8B4201D3CB02C01A5241830A8B42F7
:1027E00001D38B02C01A5241430A8B4201D34B02E0
:1027F000C01A5241030A8B4201D30B02C01A524144
:10280000CDD2C3098B4201D3CB01C01A52418309F7
:102810008B4201D38B01C01A524143098B4201D331
:102820004B01C01A524103098B4201D30B01C01A5C
:102830005241C3088B4201D3CB00C01A52418308D6
:102840008B4201D38B00C01A524143088B4201D303
:102850004B00C01A5241411A00D201465241104663
:102860007047FFE701B5002000F0F0F802BDC04658
:102870000029F7D076E7704703460B437FD4002248
:1028800043088B4274D303098B425FD3030A8B4204
:1028900044D3030B8B4228D3030C8B420DD3FF226E
:1028A000090212BA030C8B4202D31212090265D03C
:1028B000030B8B4219D300E0090AC30B8B4201D3EF
:1028C000CB03C01A5241830B8B4201D38B03C01A36
:1028D0005241430B8B4201D34B03C01A5241030BAD
:1028E0008B4201D30B03C01A5241C30A8B4201D35E
:1028F000CB02C01A5241830A8B4201D38B02C01A09
:102900005241430A8B4201D34B02C01A5241030A7F
:102910008B4201D30B02C01A5241CDD2C3098B4264
:1029200001D3CB01C01A524183098B4201D38B01E1
:10293000C01A524143098B4201D34B01C01A524184
:1029400003098B4201D30B01C01A5241C3088B42C9
:1029500001D3CB00C01A524183088B4201D38B00B4
:10296000C01A524143088B4201D34B00C01A524156
:10297000411A00D201465241104670475DE0CA0F2D
:1029800000D04942031000D34042534000229C46ED
:1029900003098B422DD3030A8B4212D3FC228901F7
:1029A00012BA030A8B420CD3890192118B4208D3CD
:1029B000890192118B4204D389013AD0921100E02F
:1029C0008909C3098B4201D3CB01C01A5241830943
:1029D0008B4201D38B01C01A524143098B4201D370
:1029E0004B01C01A524103098B4201D30B01C01A9B
:1029F0005241C3088B4201D3CB00C01A5241830815
:102A00008B4201D38B00C01A5241D9D243088B426A
:102A100001D34B00C01A5241411A00D2014663460D
:102A200052415B10104601D34042002B00D5494271
:102A3000704763465B1000D3404201B5002000F0B0
:102A400005F802BD0029F8D016E770477047C04668
:102A50009E2110B5C905041C00F064FB002803D1B9
:102A6000201C00F0C9FA10BD9E21201CC90500F0F1
:102A700027F900F0C1FA80231B069C466044F2E768
:102A8000F8B557464E464546DE46E0B54702460095
:102A900088467F0A360EC40F002E47D0FF2E24D062
:102AA000FB008027FF041F43002399469A467F3E80
:102AB00043465D025800DB0F6D0A000E984643D076
:102AC000FF283BD0EB0080250022ED041D437F381A
:102AD0003618731C41469B464B46614013430F2BEF
:102AE00064D875489B00C3589F46002F42D10823E5
:102AF0009946063BFF269A46DAE74146022A28D045
:102B0000032A00D1CEE0012A00D0ACE01140002021
:102B10000022CCB24002D205400AE4071043204311
:102B20003CBC90469946A246AB46F8BD002F15D155
:102B300004239946033B00269A46B9E7FF20022268
:102B4000002DC5D00322C3E7002D19D1002001229A
:102B5000BEE70124FF220C400020DBE7380000F034
:102B6000EBFA7626431F9F4000237642361A994699
:102B70009A469DE70C239946093BFF269A4697E71C
:102B8000280000F0D9FA431F9D4076235B42181AB3
:102B900000229DE780200024C003FF22BAE73D0009
:102BA0005246ABE73D0021005246A7E73B0C9C464E
:102BB0002A04120C2B0C1400604665463F043F0C9F
:102BC0007C4342435D437B43270C9B18FF18BA426A
:102BD00003D980235B029C46654424043A04240CF8
:102BE000121993015C1EA3413F0C920E7D191A43EA
:102BF000AD0115432B0104D501235E466A081D4033
:102C0000154332007F32002A25DD6B0704D00F23E5
:102C10002B40042B00D004352B0103D53200274B69
:102C200080321D40FE2A94DC0124A801400AD2B261
:102C30000C406FE78020C003074207D0054205D152
:102C400028434002400A4446FF2263E738434002DB
:102C5000400AFF225EE70124A31A1B2B05DD0C406E
:102C60000022002056E75E46CBE72A002020DA400B
:102C7000C31A9D402B005D1EAB4113435A0704D07D
:102C80000F221A40042A00D004335A0104D501242B
:102C900001220C4000203DE701249B01580A0C4012
:102CA000002237E780200124C00328434002400A65
:102CB0000C40FF222EE7C04640520000FFFFFFF706
:102CC000F0B54F46D64646464400C0B5C20F47024F
:102CD0004802400A844666467B0A4800C90F9A4665
:102CE000240E1500DB00000E8946F600FF2800D1F7
:102CF0008FE001214F464F403900914266D0221AA1
:102D0000002A00DC9DE000283DD1002E00D18BE0A0
:102D1000511E002900D0B5E001249B1B5A0144D567
:102D20009B019F09380000F007FA0538874084426C
:102D300000DD96E0041B3A0020200134E240041B31
:102D4000A7403B005F1EBB41002413435A0704D039
:102D50000F221A40042A00D004335A0127D5013427
:102D6000FF2C00D179E001229B015B0AE4B22A40EA
:102D70005B02E405580AD207204310431CBC90466E
:102D80009946A246F0BDFF2CE0D08021C9040E4335
:102D90001B2A7BDC31002020D140821A9640721E13
:102DA00096410E439B1B5A01BAD45A07D0D1012237
:102DB000DF082A40FF2C33D1002F00D1A8E0802368
:102DC000DB033B435B025B0AFF24D1E7211A0029A6
:102DD0004CDD00282AD0FF2CB8D08020C004064348
:102DE0001B2900DDAFE030002027C840791A8E4053
:102DF000711E8E4106439B195901D6D50134FF2C13
:102E000000D185E001227A491A405B080B40134348
:102E10009CE7002E00D070E76BE73B1EC5D1002277
:102E20007B025B0AE4B2A3E714008FE7002E4DD0CB
:102E3000481E002857D19B1901245A01B5D50224F8
:102E4000E0E7002A25D1621CD2B2012A72DD9F1B65
:102E50007A0135D5F71A0D0064E7012200232A40D4
:102E600086E73B00634A241A13406FE700296CD1C0
:102E7000611CC8B201284EDDFF2949D09B195B08AF
:102E80000C0063E7FF2A41D00A0081E701269B1B63
:102E900089E7002C1CD0FF2821D08024E404524272
:102EA00023431B2A00DD96E01C002025D440AA1AEB
:102EB00093405A1E93412343F31A04000D002DE75B
:102EC000002F00D02EE700220024A9E70C003DE7E8
:102ED000002B58D0D243002AEED0FF28E1D1330096
:102EE000FF240D0032E7FF2910D0010078E7002B06
:102EF0006ED0FF24002E00D128E780225146D20355
:102F0000114203D06146114200D13300FF241DE776
:102F1000FF2400232CE7002CE9D1002B63D0002EE6
:102F200000D113E79B195A0100D43EE7314A0C0047
:102F300013400BE7002C1ED1002B2FD1002E4FD0B9
:102F400033000D0002E7012655E7002C1FD1002BAE
:102F500043D0C94300290BD0FF2839D01B2944DCBA
:102F60001C002027CC40791A8B40591E8B412343EB
:102F70009B19040040E7002B1AD1002E24D1802792
:102F80000022FF031BE7330004000D00DEE6FF28EC
:102F90001ED08024E40449422343DFE7002E00D101
:102FA000D4E69F1B7A0100D437E7F31A0D00CDE673
:102FB000FF24002E00D1C9E680225046D2031042E1
:102FC000A4D060461042A1D133000D00FF24BDE61D
:102FD0003300FF24BAE601236EE733000400B5E6B0
:102FE000002700221CE73300B0E60123C0E7C046FB
:102FF000FFFFFF7DFFFFFFFB41024300C20F490AB5
:103000001B0E00207E2B0DDD9D2B0CDC8020000490
:103010000143952B0ADC9620C31AD9404842002A66
:1030200000D108007047034BD018FBE7963B99404E
:10303000F4E7C046FFFFFF7F10B5041E27D000F065
:103040007BF89E231B1A962B0ADC9622D21A9440F8
:103050006402640ADBB26402DB05600A184310BD37
:10306000992B17DC9922D21A002A27DD94402200DE
:10307000134C1440510704D00F210A40042A00D0F9
:103080000434620112D4A401640ADBB2E3E7002332
:103090000024E0E7B9222100D21A91400A00511E13
:1030A0008A410521091ACC401443DBE7044B1C403C
:1030B0009F23A4011B1A640ADBB2CCE72200D7E7E6
:1030C000FFFFFFFB8446081C6146FFE71FB500F0C9
:1030D000B7F8002801D40021C8421FBD10B500F088
:1030E00049F84042013010BD10B500F0A9F80028A1
:1030F00001DB002010BD012010BDC04610B500F05E
:103100009FF8002801DD002010BD012010BDC04641
:1031100010B500F055F8002801DC002010BD01209A
:1031200010BDC04610B500F04BF8002801DA0020B1
:1031300010BD012010BDC0461C2101231B04984274
:1031400001D3000C10391B0A984201D3000A083938
:103150001B09984201D30009043902A2105C4018EF
:103160007047C04604030202010101010000000093
:103170000000000070B5420045024E024C00C30F33
:103180006D0A120E760A240EC90F0120FF2A06D0FE
:10319000FF2C03D0A24201D1B54206D070BD002D54
:1031A000FCD1FF2CFAD1002EF8D18B4206D00120A1
:1031B000002AF3D12800451EA841EFE70020EDE7E3
:1031C000F0B5420045024C02C30F48006D0A120ED2
:1031D000640A000EC90FFF2A1ED0FF2821D0002A42
:1031E0000AD16E426E41F6B200280FD1002C0DD1EB
:1031F0000020002D09D005E0002801D1002C01D0CD
:103200008B4211D0012158420843F0BD002EF7D067
:10321000012001390843F8E7002DDED002204042AA
:10322000F3E7002CDBD0F9E78242EBDC04DBA542BC
:10323000E8D80020A542E8D20121581E0843E4E75F
:10324000F0B542004D024C004602760A120EC30F42
:103250006D0A240EC90FFF2A16D0FF2C18D0002AA1
:103260000AD170427041C0B2002C15D0002805D0A0
:10327000012001390843F0BD002C13D0994214D02D
:1032800001205B421843F6E70220002EF3D1E4E769
:103290000220002DEFD1E2E7002DE7D10020002E23
:1032A000E9D0EDE7002DE9D1EAE7A24206DCDFDB59
:1032B000AE4203D80020AE42DAD3DCE70120494217
:1032C0000843D8E770B500260C4D0D4C641BA410C4
:1032D000A64209D1002601F0D3FF0A4D0A4C641B17
:1032E000A410A64205D170BDB300EB589847013633
:1032F000EEE7B300EB5898470136F2E78C52000036
:103300008C5200008C52000090520000002310B537
:103310009A4200D110BDCC5CC4540133F8E70300DD
:103320008218934200D1704719700133F9E774692C
:103330006E793136313700002E3300004033000003
:1033400064330000008000404000000F00100011B6
:1033500080120B00010000132000200000148000E8
:103360002000000074696E7931363178000C943E8B
:10337000000C945B000C945B000C945B000C945B61
:10338000000C945B000C9462000C945B000C945B4A
:10339000000C945B000C945B000C945B000C945B41
:1033A000000C945B000C945B000C945B000C945B31
:1033B000000C945B000C945B000C945B000C946814
:1033C000030C948C030C945B000C945B000C945BDA
:1033D000000C945B000C945B000C945B000C945B01
:1033E000000C945B000C945B0011241FBECFEFCD4A
:1033F000BFDFE3DEBF18E3A0E0B8E3E4EEFDE102E7
:10340000C005900D92A636B107D9F728E3A6E6B815
:10341000E301C01D92AD3BB207E1F70E9489000CA9
:1034200094ED0E0C9400000E94E7030E941F020816
:10343000951F920F920FB60F9211242F933F934F27
:10344000935F936F937F938F939F93AF93BF93EF0C
:1034500093FF930E940D0382E080934301FF91EF5D
:1034600091BF91AF919F918F917F916F915F914F9C
:10347000913F912F910F900FBE0F901F9018950EB6
:10348000945D008FB780688FBF0E94740280916C3A
:10349000388130D1F710926C3880E090E00E94596A
:1034A00003C82F81E090E00E9459038C2B14F42C68
:1034B00098EBCF2C9AE9CF0895CF93C82F0E942480
:1034C000048823E1F38C2F0E9432040E942A048195
:1034D00011FCCFCF910895EF92FF920F931F93CFDE
:1034E00093DF9300D0CDB7DEB7809166388F7081BF
:1034F000F400E018E30F2EF3E1EF2EF8E3FF2EF0D7
:103500002DF80181918F010E94A600E016F106C1FD
:10351000F785E50E94A600809166380E94A60019F2
:10352000821A8289819A81029708F053C089819A10
:10353000810E943203192F0E94A600812F0E94A6AB
:103540000089819A810E943F03192F0E94A6008161
:103550002F0E94A60089819A810E9432038C0189E2
:10356000819A810E943F03081B190B802F0E94A69D
:1035700000812F0E94A60089819A810E944C031924
:103580002F0E94A600812F0E94A60089819A810E99
:10359000945903882324F481E00E94A60003C0808C
:1035A000E00E94A60089819A81FC01EE0FFF1F8E28
:1035B0000F9F1FFC01ED5CF74C80810E94A60089E3
:1035C000819A81019689839A8389819A81029708D9
:1035D000F4ADCF80916B380E94A60080916638913F
:1035E000E0980F909366380E94A6008AEA0E94A68F
:1035F000000F900F90DF91CF911F910F91FF90EFEF
:1036000090089581E080936D380895E0912B38F013
:10361000912C388081882344F4E0919038F0919186
:103620003880818460808303C081E080936C380E91
:1036300094B5000895882324F481E080936B3809C1
:10364000C086FD03C010926B3804C08F708E5F80FF
:10365000936B380E94B50008958CE898E30E945C53
:103660000C60E070E089E498E30E94CE0C60E070AA
:10367000E089E498E30E94ED0C61E070E089E49851
:10368000E30E94CE0C61E070E089E498E30E94EDD3
:103690000C42E858E360E08BE298E30E94AE0447F6
:1036A000E858E361E08BE298E30E94AE0408959C41
:1036B00001892B69F0E0E4F1E0918192FDFDCFE01A
:1036C000E4F1E02287338782818260828305C0E053
:1036D000E4F1E082818D7F8283E0E4F1E081818109
:1036E000FDFDCF10924801109249010895E0E8F1E4
:1036F000E01582138AE0E4F1E0818180FDFDCFE0F6
:10370000E4F1E080818E7F8083818980FDFDCFE0C0
:10371000E4F1E080898E7F808B84E190E080936784
:10372000389093683880914838853098F4109247E3
:1037300001818180FDFDCF89E980934001809167FF
:103740003890916838880F991F880F991F0E94A19F
:103750000111C081E080934701E0E4F1E0818180C4
:10376000FDFDCF81E880934001809167389091689A
:10377000380E94A101E0E4F1E0818180FDFDCFE00D
:10378000E4F1E080818160808308958091673890C2
:10379000916838449749F00E94C00181E080936E9F
:1037A000381092693810926A38089584E190E00EDA
:1037B00094A101E7E1F4E08081877F8083808188A4
:1037C0007F84608083E6E1F4E08081877F8083806E
:1037D00081887F846080830E94C001E2E9F8E31061
:1037E0008287E298E38183928383E298E3838394E0
:1037F000838BE198E3858396838FE198E3878390B9
:103800008783E198E38187928787E198E3838794B0
:103810008788E99AE08587968786E791E087879091
:103820008B84E691E0818B928B8BE491E0838B9487
:103830008B158A168A8FE491E0878B908FCF010ECB
:103840009493080E948E0880939038909391380E3C
:1038500094A500089580916E38813039F480E00E8F
:1038600094F208811102C010926E3880916D3881F7
:103870003009F083C00E944209811103C00E944AAE
:103880000903C080E80E94640110926D38E09190B5
:1038900038F0919138808182FF07C081E080936E7B
:1038A0003880818B7F808369C080917C3880FF0560
:1038B000C01092693810926A3856C0809169389069
:1038C000916A388838934108F44EC06FE072E08303
:1038D000E498E30E942E0D209167383091683820DB
:1038E0003D374009F44AC0811148C0E0E4F1E0816D
:1038F0008180FDFDCFE0E4F1E080818E7F808380D8
:10390000ED97E080936738909368388091483885C8
:103910003060F491E1981BE0E8F1E0958386E08364
:103920008B80E49FE10E94A1010BC096E1981BE00F
:10393000E8F1E0958386E0838B80ED97E00E94A11B
:1039400001E0E4F1E0818980FDFDCFE0E4F1E08079
:10395000898160808B818180FDFDCFE0E4F1E08092
:1039600081816080830AC080916738909168384473
:103970009721F00E946A0E0E94C00180916E3881EA
:103980003009F08895089581E080936E38809167C2
:1039900038909168380E94A304209167383091686C
:1039A000388091693890916A38A901409550958482
:1039B00017950738F4820F931F8093693890936AA4
:1039C0003808958FEF9FEF8093693890936A380895
:1039D000959C01220F331F220F331F820F931FFC70
:1039E00001EE57F74C8181928108959C01220F339B
:1039F0001F820F931FFC01EE0FFF1FE555F74C844C
:103A000081958108959C01220F331F220F331F825D
:103A10000F931FFC01EE57F74C8381948108959C0E
:103A200001220F331F820F931F880F991FE0912FE0
:103A300038F0913038E80FF91F808108951F920FF8
:103A4000920FB60F9211242F933F934F935F936F72
:103A5000937F938F939F93AF93BF93EF93FF930EB7
:103A6000947B0EFF91EF91BF91AF919F918F917FCA
:103A7000916F915F914F913F912F910F900FBE0FDA
:103A8000901F9018951F920F920FB60F9211242F2E
:103A9000933F934F935F936F937F938F939F93AFD6
:103AA00093BF93EF93FF930E94A70EFF91EF91BFF7
:103AB00091AF919F918F917F916F915F914F913FC6
:103AC000912F910F900FBE0F901F90189582E0805C
:103AD00093890080E0089540E068ED81E690E00E73
:103AE00094020480E00895789480E00895E0E1F481
:103AF000E0808188608193E83184E0F807C9F7E0CD
:103B0000E3F4E0808188608193E83384E0F807C9BA
:103B1000F7E0E5F4E0808188608193E83584E0F89F
:103B200007C9F708952398E3E3F4E08081877F8055
:103B3000832A98229A0E941A0408950E94C0032C96
:103B40009A249A0E94B5030E9406040E94DC030E88
:103B500094FA030E94BD030E9415040E94B003085A
:103B600095E0E8F1E081E1858386E0838B80E008E1
:103B700095FC0164BF40830895E0E4F1E081818118
:103B800011FDCFE0E4F1E081E8808381E08783826A
:103B9000E0828380E0089583E08093500080E00815
:103BA00095E0E0F8E083E298E08087918780EC86FA
:103BB0008380E008958091040885FB882780F908B8
:103BC000958091040886FB882780F991E089270871
:103BD00095E0E0F8E0948195FFFDCF80930208081E
:103BE00095CF92DF92FF920F931F93CF93DF93ECC9
:103BF00001AE81BF81EB01CC0FDD1FC60FD71FCAFD
:103C00000FDB1FFA80FC0144815581E6E0E69F90BE
:103C100001E79F300D11248A01020F131FF80122C2
:103C2000813381F90121813281F8010481158120DC
:103C30001B310BE8812E1B3109EC01EA81FB81006D
:103C4000811181FA0140E050E04017510739F146F7
:103C5000175707F9F012968C911297F8121AC08034
:103C60008185588230E8F0C480D58082819381ECD0
:103C70000189819A81C816D90660F48C199D09CCF6
:103C800091D0E0C817D90728F48C1B9D0B28173951
:103C90000738F04F5F5F4F13963696D6CF80E0011E
:103CA000C081E0DF91CF911F910F91FF90DF90CF06
:103CB00090089520916F3830917038820F931F8053
:103CC000936F389093703808950097D9F04115514B
:103CD00005C1F026E0629FB0011124DC011496EDCD
:103CE00091FC911597E60FF71F21E0208314968D24
:103CF000919C911597FC01E60FF71F428353838037
:103D0000E008958BE008952F923F924F925F926F5B
:103D1000927F928F929F92AF92BF92CF92DF92EF5B
:103D200092FF920F931F93CF93DF93009709F47D37
:103D3000C3EC01A12CB12C812C912C212CD12C3342
:103D4000E0C32E45E8642E56E8752E67E0362E72E5
:103D5000E0472EE8E05E2EEA81FB81808191818838
:103D600016990608F0A5C17501EE0CFF1C0C811D0B
:103D7000810E0D1F1DD8018C91843009F4A2C0382A
:103D8000F4823001F108F049C0813059F08AC185D0
:103D90003809F4C2C0863809F4F6C0873009F081CA
:103DA000C137C1D8011296ED91FC91139780818E95
:103DB0007109F069C14C928C819D81FC01EE0DFF6F
:103DC0001D518261C1F8012181222329F10280F372
:103DD00081E02D253020F081819281D8010EC0D85C
:103DE0000114968D919C911597418152818417956C
:103DF0000769F04817590730F4019714968D939C82
:103E000093159704C00196F801848395832150D8B7
:103E10000111962C9338C1F80131C1D80114962DA7
:103E2000913C91159712968D919C911397DC0111FD
:103E3000964D915C9112972417350709F432C18E83
:103E4000819F8142175307E0F4241B350BDC01AA44
:103E50000DBB1D8C9190E0058002C0959587950A59
:103E600094E2F799272817390708F41BC184818841
:103E70002309F417C1F8013082EA81FB8124811AF9
:103E8000C0FC01EA0DFB1D421B530B808190E048F2
:103E900017590708F406C18281882331F0B401CE96
:103EA000010E943A048111FDC0E4E0D801EC93EADC
:103EB00081FB8122818C819D81FC01EE0DFF1D2102
:103EC00083E2C0D80114962D913C9115971296ED7E
:103ED00091FC911397818192818217930708F4D7FF
:103EE000C0EE81FF81EA0DFB1D821B930B20813008
:103EF000E02817390708F0AFC08281882331F0B479
:103F000001CE010E943A048111CCC0F80181818860
:103F10002309F467C08150B6C0A881B98180851398
:103F2000968C93EC81FD81EE0DFF1D44815581A29D
:103F300081B38111968D919C91129784179507C03A
:103F4000F0AE81BF81AA0DBB1D6C91262F30E01110
:103F5000967C917F5F02C0359527957A95E2F7842C
:103F60001B950B621B262F30E02817390708F497A2
:103F7000C07082EA81FB8122818C819D81FC01EEEF
:103F80000DFF1D218342C0D80114966D917C9115BF
:103F9000971296ED91FC9113972181328126173764
:103FA0000758F411968C911197811102C0CC927729
:103FB000C08150F801818373C0EE81FF81EA0DFB5F
:103FC0001D8081482F50E091819F5F02C055954729
:103FD000959A95E2F7261B370B841B90E082179386
:103FE0000760F4D8016C92EA81FB8123818C819D6A
:103FF00081FC01EE0DFF1D218352C0F801818181FA
:104000001102C0C0824CC081508183222423943B82
:10401000C0D80114962D913C91159712968D919CC4
:10402000911397DC0111968D919C911297821793B1
:104030000768F5281B390BAE81BF81AA0DBB1D8C0B
:104040009190E0058002C0959587950A94E2F799D2
:10405000272817390718F4F801C0821AC0D80111AF
:10406000968C91119781110CC081E08C938C819D6D
:1040700081FC01EE0DFF1D0280F381E02DC0821155
:10408000C08150F8018183DD24D3940BC0D801CCCA
:10409000928C819D81FC01EE0DFF1D118202C022D8
:1040A000242394BFEF8B1A9B0AE3E0AE0EB11C539E
:1040B000CEE881F981808187FF23C040E050E02075
:1040C000E030E0EA81FB81808191812817390798EF
:1040D000F4EC81FD81E40FF51FA281B3818C918006
:1040E000FD05C09081977F11F081608C932F5F3F19
:1040F0004F4A5F5F4FE6CFE881F98180818F7780FB
:1041000083D11007C0E881F98121106FC080818EB2
:104110007F6EC0EA81FB8181858823A1F3E881F964
:1041200081808180688083EA81FB81818581305133
:10413000F740E050E020E030E096E0D92EEA81FB45
:10414000816081718126173707E8F60C811D81FA9D
:1041500001EE0FFF1FE00FF11F8081982F977FA1C5
:10416000F1853811F08330B1F5EE80FF80D701A4DE
:104170000FB51F1296BC90BB2039F180E090E0C1D2
:104180002C86179707F8F428173907D1F0D89ED056
:1041900001D99EB00D1124A00FB11FAC91A4301114
:1041A000F0A63871F4DC01AA0FBB1FA80FB91FAE2F
:1041B0000DBF1D1296AC91BA1203C0CB01CC24C323
:1041C000940196DECFC11006C00280F381E02D80FD
:1041D000818E7F05C00280F381E02D808181608027
:1041E000832F5F3F4F4D5F5F4FA9CF8081816080FC
:1041F0008380916F3890917038E881F98121813204
:1042000081A90148535F4F4817590738F4821B931F
:104210000BAA24A394A3E0BA2E44C08217930710DC
:10422000F080E004C1821B930B0197893C9105C08B
:10423000F3EFCF885C9109E881F9812181328128EF
:10424000533F4F218332832381211196C024812241
:104250002311F021502483E881F981258122231143
:10426000F0215025838A809B80D40116962C9116CC
:104270009721111BC08A809B80F40127812111485E
:10428000C0EA81FB812381222361F020E030E0A09D
:10429000E0B0E0EA81FB8140815181A417B50708B5
:1042A000F46EC0893C910528F6BBCF08811981F8CE
:1042B0000124812111DFCFED90FC9060E070E0409F
:1042C000E050E04E155F05F1F0EC81FD81E60FF75F
:1042D0001F2081233011F0283081F424813581C2E0
:1042E00080D380D6011196CD90DC9012972C153D8D
:1042F0000520F42F5F3F4F248335834F5F5F4F6A64
:104300005F7F4FDFCFF4012681D80114962C93B242
:10431000CF08811981D80115962C912111B1CFE0D8
:1043200080F18060E070E040E050E04E155F05F104
:10433000F0EC81FD81E60FF71F2081233011F0287A
:104340003081F424813581C280D380D6011196CD8D
:1043500090DC901297C216D30620F4215031092424
:104360008335834F5F5F4F6A5F7F4FDFCFF4012755
:1043700081D80115962C9384CF2150238381CFA916
:1043800001440F551FEC81FD81E40FF51F6081652D
:104390003809F047C06181662319F061506183419B
:1043A000C0A0826C817D81FB01E40FF51F0280F3C8
:1043B00081E02DB082EE81FF81E20FF31FD280DD1C
:1043C0002081F140E050E000E010E0EA81FB8160F4
:1043D0008171810617170728F5EE81FF81E40FF53B
:1043E0001F6281D61219C0BA01660F771FEC81FDDA
:1043F000814F01860E971EF401E280F380F701F0F1
:1044000080F0FE0AC0F401A082EC81FD81E60FF786
:104410001F0280F381E02DB0820F5F1F4F4D5F5F61
:104420004FD4CF11962D5F3F4F34CF8BE0DF91CF2C
:10443000911F910F91FF90EF90DF90CF90BF90AFC1
:10444000909F908F907F906F905F904F903F902FB4
:1044500090089595E090937338E091B738F091B853
:10446000380188F289E02D309709F00994FFCFE0F8
:1044700091B738F091B8380388F489E02D30970966
:10448000F0099480E40C9473088091B7389091B847
:10449000380895CF938093B7389093B8388091734C
:1044A00038853039F0823028F08091713888237156
:1044B000F140C010927138C0E0A091B738B091B807
:1044C000388C2F90E0880F991F1196ED91FC911276
:1044D00097E80FF91F0190F081E02D309729F3172D
:1044E000962D913C911897D901A80FB91F8D919CD9
:1044F000910995882329F0809171388F5F8093719D
:1045000038CF5F809171388823B9F2CECF82E080B6
:10451000937338E091B738F091B8380784F089E0A8
:104520002D309711F0099508C085E080937338818C
:10453000E001C08F5F80937138809171388823319A
:10454000F01092713880E8CF910C947308CF9108E5
:10455000951F93CF93DF93182FA091B738B091B8E0
:104560003815962D913C911697D0E0F901ED0FF199
:104570001DED0FF11D80819181892B11F0DF5FF519
:10458000CF53968D919C915497892B49F1812F900F
:10459000E0880F991FF901E80FF91F0190F081E001
:1045A0002D3097E9F01B962D913C911C97D901A8CD
:1045B0000FB91F8D919C91009791F061E878E00907
:1045C00095C82F811106C083E080937338109272D2
:1045D0003803C082E0809373381D1728F001C0C2F1
:1045E000E082E80E9473088C2FDF91CF911F910821
:1045F00095E091B738F091B8380584F685E02D093B
:10460000941F93CF93DF931F92CDB7DEB71982E04B
:1046100091B738F091B8380588F689E02D30974980
:10462000F082E080937338CE010196099583E08093
:104630009373388091713881112CC019811111291F
:10464000C084E080937338A091B738B091B83880B7
:1046500091723890E0880F991F1396ED91FC911498
:1046600097E80FF91F0190F081E02D19962D913CEC
:10467000911A97309781F0D901A80FB91F8D919C9D
:1046800091099581113EC0809172388F5F8093723D
:1046900038DACF10E03DC010927238F901E10FF125
:1046A0001DE10FF11D0190F081E02D309759F001CF
:1046B00090F081E02D808187FF03C09C9194609CE5
:1046C000931F5FEBCF1093723882E080937338575B
:1046D00096ED91FC915897309711F0099505C0809F
:1046E0009171388F5F8093713810E08091713888B4
:1046F0002379F0109271388091723880640E94732F
:104700000807C0809171388F5F8093713813E0ED96
:10471000CF812F0F90DF91CF911F910895809179D4
:104720003890917A38A091B938B091BA38ED91FCAF
:104730009111974081518125E0289FB001299F70F8
:104740000D112420E030E084179507A8F41496EDAD
:1047500091FC911597E20FF31FE60FF71FE0812BF5
:104760005F3F4FE0FD02C00196EECF809379389015
:10477000937A3880E008951092793810927A3881CF
:10478000E00895BC01E091B938F091BA389C0183FA
:10479000E0220F331F8A95E1F7A281B381A20FB304
:1047A0001F12969C91129713968C9190932A0680D3
:1047B000932B06A281B381A20FB31F9C9111968CFB
:1047C00091909326068093270695E0969FA00197E7
:1047D0009F500D1124A481B581A40FB51F13968C91
:1047E0009180931A06A481B581A40FB51F14968CED
:1047F0009180931B06A481B581A40FB51F8C918174
:10480000FD9C9384819581DC01A40FB51F8C918C54
:104810007169F4A281B381A20FB31F1696AC91A265
:1048200095AF70B0E0A252B2468C9101C08FE38088
:10483000931C06A281B381A20FB31F14968C918B97
:104840003110F48C5F01C08FE180930506A281B323
:1048500081A20FB31F17968C9180930106A281B39A
:1048600081A20FB31F15968C9182958F708093193A
:104870000682819381FC01E20FF31F85818F708096
:1048800061809302068091180683608093180681E8
:10489000E88093000681E08093080608953F924FD8
:1048A000925F926F927F928F929F92AF92BF92CFC0
:1048B00092DF92EF92FF920F931F93CF93DF93803B
:1048C000917838882309F448C1A091B938B091BAD9
:1048D00038C090BB38D090BC3800E010E060E07089
:1048E000E0E12CF12C80E033243394D1E84D2E8884
:1048F000248A94992493946D907C901197F30120CD
:10490000813181E216F30608F023C1E601299139CD
:10491000916E011496ED91FC911597E60FF71F40EB
:10492000814C7150E05695479556954795411551E4
:104930000521F041305105B9F002C11296CD91DC4C
:10494000911397C00FD11F4E814F709F814917104F
:10495000F4941B01C090E002C0369527959A95E229
:10496000F721833283EDC012964D915C91139740ED
:104970000F511FEA010F8002C0369527950A94E275
:10498000F721833283A380B4802115D2E03D072034
:10499000F02F5F314091E005C0A401421B530B9AF8
:1049A0000190E0E3015A80D0E45D1205C0369527FE
:1049B00095992319F009C0992339F04FEFA416B443
:1049C0000631F440828EE007C07724739401C071F1
:1049D0002C2A30310590F41496ED91FC911597E650
:1049E0000FF71F908197FF30821496ED91FC91157F
:1049F00097E60FF71FA382B482A3C0E501CD2FDD98
:104A000027C295CF709C2FA50144275F70652EA506
:104A100001407F5527529542954F7045275F70455D
:104A2000275A2D5F70A52EC43030F09370D695C7ED
:104A300095D695C7959C0F71103CC050E8550D5206
:104A40003010F456E007C053E005C0951768F49F96
:104A50005F2F5C3109203D3105C0F706C0CFE06C07
:104A60001649F063942551310926313105B8F7DF35
:104A7000E06D120EC0951720F49F5FD5E06D2E08F3
:104A8000C0CFE06C2E05C04F3049F04F5F2250314F
:104A90000923303105C0F74F3009F065C04FE0649D
:104AA0001681F1639445E05FC0992361F091502F26
:104AB0005C3109203D3105C0F705C0662041F06A30
:104AC000942551310926313105C0F761100DC09987
:104AD0002321F091505AE0652E07C0612C05C04497
:104AE0002341F041502250310923303105C0F741B4
:104AF0001110C06620E9F16A944AE023303105C8FC
:104B0000F608C059132FC02330310540F14FE0A4FF
:104B10002E4FE0943018F0990F990F9950C0E14C46
:104B20009FA001112456294A29C92FD0E0DC2FCC9F
:104B300027D295D07F4C2B5D2B4383548301C0FF3C
:104B4000CFDFEFED1AFD0A6B5F7F4F085F1F4FD37A
:104B5000CE92E0909378380EC083E00CC04FE02FE7
:104B6000E0A22ED7CF4FE02330310508F073CFD12C
:104B7000CF40E0CFCFDF91CF911F910F91FF90EF0A
:104B800090DF90CF90BF90AF909F908F907F906F6D
:104B9000905F904F903F900895CF93DF930097E1FF
:104BA000F1DC01ED91FC91A081B18160E070E04009
:104BB000E050E020E030E04A175B0799F0EC01EAB2
:104BC00081FB81E60FF71FC081D1810280F381E074
:104BD0002DEC2BFD2B2E2B3F2B4F5F5F4F685F7F04
:104BE0004FEACF21153105D1F08091783881110835
:104BF000C0209322063093230681E0809378380A00
:104C0000C080912206822B80932206809123068306
:104C10002B8093230680E003C08BE001C082E0DF9D
:104C200091CF910895009731F08093BB389093BC59
:104C30003880E008958BE0089561157105A1F100B9
:104C40009791F120917838222381F1243081F180ED
:104C500093B9389093BA3860937638709377381058
:104C6000921806DC01ED91FC912281203439F42068
:104C7000EC2093180620911806206205C0203841C8
:104C8000F42091180628622093180610921E06132D
:104C9000C0213879F420911806286220931806263E
:104CA000E820931E0608C08BE0089583E0089581F4
:104CB000E0089582E0089510920006DC01ED91FC79
:104CC000918481803108F080E18093030681E08047
:104CD000930B0680930A06809364381092793810FB
:104CE000927A380E94D80981110BC084E0809378B1
:104CF000388091793890917A380E940B0A80E008C8
:104D00009582E08093783808950097C9F0DC01ED32
:104D100091FC911197208131812617370790F0453A
:104D2000E0469F9001479F300D11241496ED91FCB1
:104D3000911597E20FF31F81E0808380E008958B47
:104D4000E0089582E00895FC01892BD1F1A081B1A2
:104D5000818D919C91119786179707A0F112969CCF
:104D6000910480F581E02D903459F485E0869FD040
:104D700001879FB00D1124AE0FBF1F84E392E00D99
:104D8000C09058923080F485E0869FD001879FB014
:104D90000D1124AE0FBF1F87E695E013968D939CEF
:104DA00093149780E001C082E095E0969F90019770
:104DB0009F300D1124E20FF31F90819260908308C1
:104DC000958BE0089582E008950F931F93CF93DFB2
:104DD00093FC01892B09F42CC1A081B181109709A2
:104DE000F427C16115710509F423C10D90BC91A090
:104DF0002D228133818D919C912817390708F01A53
:104E0000C11092000610921806A081B1810D90BCCD
:104E100091A02D12968C91803439F480EC809318F7
:104E20000680911806806203C0809118068862800F
:104E3000931806609374387093753882E080936499
:104E400038428153814093793850937A38C081D168
:104E500081C093B938D093BA38CA0173E0880F99EA
:104E60001F7A95E1F7AA81BB81A80FB91F12963C62
:104E700091129713962C9130932A0620932B06AA11
:104E800081BB81A80FB91F3C9111962C91309326BC
:104E9000062093270665E0649F9001659F300D1101
:104EA00024A081B18114960D90BC91A02DA20FB3C6
:104EB0001F13964C9140931A06A081B18114964D10
:104EC000915C911597DA01A20FB31F14962C9120D3
:104ED000931B06A081B18112960D90BC91A02DA8C4
:104EE0000FB91F1696AC91A295AF70B0E0A252B266
:104EF000462C9120931C0620813181A281B381AD83
:104F000001A3E0440F551FAA95E1F7D90112962D90
:104F1000913C911397DA01A20FB31F14962C912B99
:104F20003110F42C5F01C02FE120930506A081B160
:104F30008112960D90BC91A02DA80FB91F17962C29
:104F40009120930106A081B18112960D90BC91A091
:104F50002DA80FB91F15962C91207F209319062A92
:104F6000813B81D901A80FB91F15968C918F708054
:104F70006180930206008111818281938145E0481E
:104F80009F9001499F300D1124D80114964D915CDA
:104F9000911597DA01A20FB31F11962D913C911232
:104FA00097648170E0A901460F571F261B370B63DA
:104FB000E0880F991F6A95E1F7D8011296ED91FCF0
:104FC000911397E80FF91F6A817B81DB01A80FB964
:104FD0001F16969C919F708781891B082E02C044E2
:104FE0000F551F0A94E2F7B90102C0660F771F8AB6
:104FF00095E2F7CB01409314065093150660931287
:10500000069093130684E08093040683E080930B5C
:105010000682E080930A0681E08093090680911859
:105020000683608093180681E88093000680E00381
:10503000C08BE001C082E0DF91CF911F910F9108FA
:105040009580916438823059F481E08093643810FF
:10505000921806109200061092090680E0089583C7
:10506000E0089510920006409110065091110680BC
:1050700091793890917A389C01220F331FE091BBCF
:1050800038F091BC38E20FF31F40835183019680C2
:1050900093793890937A380E94D809811109C08495
:1050A000E0809378388091793890917A380C940B1D
:1050B0000AE0917638F09177380994209110063003
:1050C0009111066091793870917A38CB01880F99E7
:1050D0001FE091BB38F091BC38E80FF91F208331F5
:1050E00083A091B938B091BA38CB0153E0880F99B9
:1050F0001F5A95E1F71296ED91FC911397E80FF97D
:105100001F96819F708781981710F4891B01C080BA
:10511000E095E0969FA001979F500D11241496ED05
:1051200091FC911597E40FF51F02C0369527958ADB
:1051300095E2F72183328382E080937838E091749E
:1051400038F09175380994F894FFCF3F1C0B050394
:10515000015FB400864A03EB00000000000000AAD3
:1051600055016EA02B38000049380000660C000085
:1051700049380000CD040000160C00007C38393896
:10518000AB3833381E01001E01000200020005008A
:1051900014051401493800001E055F384F38823865
:1051A00000000800000200040000040000020004E7
:1051B000020080300001004E564D4572617365005B
:1051C0004E564D50726F6720005524552555E52EDB
:1051D0002E2F68616C2F7372632F68616C5F696F2B
:1051E0002E63002E2E2F68616C2F7372632F6861FF
:1051F0006C5F75736172745F6173796E632E6300A7
:105200002E2E2F68616C2F7574696C732F73726307
:105210002F7574696C735F72696E67627566666517
:10522000722E63002E2E2F68706C2F736572636F61
:105230006D2F68706C5F736572636F6D2E63000015
:10524000AC2B0000FC2A0000FC2A0000FA2A000017
:105250009E2B00009E2B0000942B0000FA2A0000D9
:105260009E2B0000942B00009E2B0000FA2A0000C9
:10527000A42B0000A42B0000A42B0000342C000061
:10528000F8B5C046F8BC08BC9E467047DD0000007B
:10529000F8B5C046F8BC08BC9E467047B500000093
:1052A00000467DFF00F6FF0000FFC5000000000083
:1052B000000000004A1E00006D3300004A1E00007E
:1052C00000000000000000000000000000000000DE
:1052D00000000000000000000000000000000000CE
:1052E00000000000000000000000000000000000BE
:1052F00000000000000000000000000000000000AE
:1057A00000000000000000000000000001000000F8
:00000001FF
